{
	"contracts/homework2/Project.sol": {
		"Project": {
			"abi": [
				{
					"anonymous": false,
					"inputs": [
						{
							"indexed": true,
							"internalType": "address",
							"name": "donor",
							"type": "address"
						},
						{
							"indexed": false,
							"internalType": "uint256",
							"name": "amount",
							"type": "uint256"
						}
					],
					"name": "DonationReceived",
					"type": "event"
				},
				{
					"anonymous": false,
					"inputs": [
						{
							"indexed": true,
							"internalType": "address",
							"name": "donor",
							"type": "address"
						},
						{
							"indexed": false,
							"internalType": "uint256",
							"name": "amount",
							"type": "uint256"
						}
					],
					"name": "FundsRefunded",
					"type": "event"
				},
				{
					"anonymous": false,
					"inputs": [
						{
							"indexed": true,
							"internalType": "address",
							"name": "creator",
							"type": "address"
						},
						{
							"indexed": false,
							"internalType": "uint256",
							"name": "amount",
							"type": "uint256"
						}
					],
					"name": "FundsWithdrawn",
					"type": "event"
				},
				{
					"anonymous": false,
					"inputs": [
						{
							"indexed": false,
							"internalType": "enum Project.ProjectState",
							"name": "newState",
							"type": "uint8"
						}
					],
					"name": "ProjectStateChanged",
					"type": "event"
				},
				{
					"inputs": [],
					"name": "creator",
					"outputs": [
						{
							"internalType": "address",
							"name": "",
							"type": "address"
						}
					],
					"stateMutability": "view",
					"type": "function"
				},
				{
					"inputs": [],
					"name": "currentAmount",
					"outputs": [
						{
							"internalType": "uint256",
							"name": "",
							"type": "uint256"
						}
					],
					"stateMutability": "view",
					"type": "function"
				},
				{
					"inputs": [],
					"name": "deadline",
					"outputs": [
						{
							"internalType": "uint256",
							"name": "",
							"type": "uint256"
						}
					],
					"stateMutability": "view",
					"type": "function"
				},
				{
					"inputs": [],
					"name": "description",
					"outputs": [
						{
							"internalType": "string",
							"name": "",
							"type": "string"
						}
					],
					"stateMutability": "view",
					"type": "function"
				},
				{
					"inputs": [],
					"name": "donate",
					"outputs": [],
					"stateMutability": "payable",
					"type": "function"
				},
				{
					"inputs": [
						{
							"internalType": "uint256",
							"name": "",
							"type": "uint256"
						}
					],
					"name": "donations",
					"outputs": [
						{
							"internalType": "address",
							"name": "donor",
							"type": "address"
						},
						{
							"internalType": "uint256",
							"name": "amount",
							"type": "uint256"
						}
					],
					"stateMutability": "view",
					"type": "function"
				},
				{
					"inputs": [],
					"name": "goalAmount",
					"outputs": [
						{
							"internalType": "uint256",
							"name": "",
							"type": "uint256"
						}
					],
					"stateMutability": "view",
					"type": "function"
				},
				{
					"inputs": [
						{
							"internalType": "address",
							"name": "_creator",
							"type": "address"
						},
						{
							"internalType": "string",
							"name": "_description",
							"type": "string"
						},
						{
							"internalType": "uint256",
							"name": "_goalAmount",
							"type": "uint256"
						},
						{
							"internalType": "uint256",
							"name": "_duration",
							"type": "uint256"
						}
					],
					"name": "initialize",
					"outputs": [],
					"stateMutability": "nonpayable",
					"type": "function"
				},
				{
					"inputs": [],
					"name": "refund",
					"outputs": [],
					"stateMutability": "nonpayable",
					"type": "function"
				},
				{
					"inputs": [],
					"name": "state",
					"outputs": [
						{
							"internalType": "enum Project.ProjectState",
							"name": "",
							"type": "uint8"
						}
					],
					"stateMutability": "view",
					"type": "function"
				},
				{
					"inputs": [],
					"name": "updateProjectState",
					"outputs": [],
					"stateMutability": "nonpayable",
					"type": "function"
				},
				{
					"inputs": [],
					"name": "withdrawFunds",
					"outputs": [],
					"stateMutability": "nonpayable",
					"type": "function"
				}
			],
			"devdoc": {
				"kind": "dev",
				"methods": {},
				"version": 1
			},
			"evm": {
				"assembly": "    /* \"contracts/homework2/Project.sol\":58:2773  contract Project {... */\n  mstore(0x40, 0x80)\n  callvalue\n  dup1\n  iszero\n  tag_1\n  jumpi\n  0x00\n  dup1\n  revert\ntag_1:\n  pop\n  dataSize(sub_0)\n  dup1\n  dataOffset(sub_0)\n  0x00\n  codecopy\n  0x00\n  return\nstop\n\nsub_0: assembly {\n        /* \"contracts/homework2/Project.sol\":58:2773  contract Project {... */\n      mstore(0x40, 0x80)\n      jumpi(tag_1, lt(calldatasize, 0x04))\n      shr(0xe0, calldataload(0x00))\n      dup1\n      0x7284e416\n      gt\n      tag_14\n      jumpi\n      dup1\n      0x7284e416\n      eq\n      tag_8\n      jumpi\n      dup1\n      0xc19d93fb\n      eq\n      tag_9\n      jumpi\n      dup1\n      0xe8668c52\n      eq\n      tag_10\n      jumpi\n      dup1\n      0xed88c68e\n      eq\n      tag_11\n      jumpi\n      dup1\n      0xf441b1c8\n      eq\n      tag_12\n      jumpi\n      dup1\n      0xf8626af8\n      eq\n      tag_13\n      jumpi\n      jump(tag_1)\n    tag_14:\n      dup1\n      0x02d05d3f\n      eq\n      tag_2\n      jumpi\n      dup1\n      0x24600fc3\n      eq\n      tag_3\n      jumpi\n      dup1\n      0x2636b945\n      eq\n      tag_4\n      jumpi\n      dup1\n      0x29dcb0cf\n      eq\n      tag_5\n      jumpi\n      dup1\n      0x3deb33e7\n      eq\n      tag_6\n      jumpi\n      dup1\n      0x590e1ae3\n      eq\n      tag_7\n      jumpi\n    tag_1:\n      0x00\n      dup1\n      revert\n        /* \"contracts/homework2/Project.sol\":82:104  address public creator */\n    tag_2:\n      callvalue\n      dup1\n      iszero\n      tag_15\n      jumpi\n      0x00\n      dup1\n      revert\n    tag_15:\n      pop\n      tag_16\n      tag_17\n      jump\t// in\n    tag_16:\n      mload(0x40)\n      tag_18\n      swap2\n      swap1\n      tag_19\n      jump\t// in\n    tag_18:\n      mload(0x40)\n      dup1\n      swap2\n      sub\n      swap1\n      return\n        /* \"contracts/homework2/Project.sol\":1625:1918  function withdrawFunds() external onlyCreator onlyAfterDeadline {... */\n    tag_3:\n      callvalue\n      dup1\n      iszero\n      tag_20\n      jumpi\n      0x00\n      dup1\n      revert\n    tag_20:\n      pop\n      tag_21\n      tag_22\n      jump\t// in\n    tag_21:\n      stop\n        /* \"contracts/homework2/Project.sol\":143:168  uint256 public goalAmount */\n    tag_4:\n      callvalue\n      dup1\n      iszero\n      tag_23\n      jumpi\n      0x00\n      dup1\n      revert\n    tag_23:\n      pop\n      tag_24\n      tag_25\n      jump\t// in\n    tag_24:\n      mload(0x40)\n      tag_26\n      swap2\n      swap1\n      tag_27\n      jump\t// in\n    tag_26:\n      mload(0x40)\n      dup1\n      swap2\n      sub\n      swap1\n      return\n        /* \"contracts/homework2/Project.sol\":175:198  uint256 public deadline */\n    tag_5:\n      callvalue\n      dup1\n      iszero\n      tag_28\n      jumpi\n      0x00\n      dup1\n      revert\n    tag_28:\n      pop\n      tag_29\n      tag_30\n      jump\t// in\n    tag_29:\n      mload(0x40)\n      tag_31\n      swap2\n      swap1\n      tag_27\n      jump\t// in\n    tag_31:\n      mload(0x40)\n      dup1\n      swap2\n      sub\n      swap1\n      return\n        /* \"contracts/homework2/Project.sol\":2427:2770  function updateProjectState() external onlyAfterDeadline {... */\n    tag_6:\n      callvalue\n      dup1\n      iszero\n      tag_32\n      jumpi\n      0x00\n      dup1\n      revert\n    tag_32:\n      pop\n      tag_33\n      tag_34\n      jump\t// in\n    tag_33:\n      stop\n        /* \"contracts/homework2/Project.sol\":1926:2419  function refund() external onlyAfterDeadline {... */\n    tag_7:\n      callvalue\n      dup1\n      iszero\n      tag_35\n      jumpi\n      0x00\n      dup1\n      revert\n    tag_35:\n      pop\n      tag_36\n      tag_37\n      jump\t// in\n    tag_36:\n      stop\n        /* \"contracts/homework2/Project.sol\":111:136  string public description */\n    tag_8:\n      callvalue\n      dup1\n      iszero\n      tag_38\n      jumpi\n      0x00\n      dup1\n      revert\n    tag_38:\n      pop\n      tag_39\n      tag_40\n      jump\t// in\n    tag_39:\n      mload(0x40)\n      tag_41\n      swap2\n      swap1\n      tag_42\n      jump\t// in\n    tag_41:\n      mload(0x40)\n      dup1\n      swap2\n      sub\n      swap1\n      return\n        /* \"contracts/homework2/Project.sol\":327:352  ProjectState public state */\n    tag_9:\n      callvalue\n      dup1\n      iszero\n      tag_43\n      jumpi\n      0x00\n      dup1\n      revert\n    tag_43:\n      pop\n      tag_44\n      tag_45\n      jump\t// in\n    tag_44:\n      mload(0x40)\n      tag_46\n      swap2\n      swap1\n      tag_47\n      jump\t// in\n    tag_46:\n      mload(0x40)\n      dup1\n      swap2\n      sub\n      swap1\n      return\n        /* \"contracts/homework2/Project.sol\":950:1260  function initialize(address _creator, string memory _description, uint256 _goalAmount, uint256 _duration) public {... */\n    tag_10:\n      callvalue\n      dup1\n      iszero\n      tag_48\n      jumpi\n      0x00\n      dup1\n      revert\n    tag_48:\n      pop\n      tag_49\n      0x04\n      dup1\n      calldatasize\n      sub\n      dup2\n      add\n      swap1\n      tag_50\n      swap2\n      swap1\n      tag_51\n      jump\t// in\n    tag_50:\n      tag_52\n      jump\t// in\n    tag_49:\n      stop\n        /* \"contracts/homework2/Project.sol\":1268:1617  function donate() external payable {... */\n    tag_11:\n      tag_53\n      tag_54\n      jump\t// in\n    tag_53:\n      stop\n        /* \"contracts/homework2/Project.sol\":205:233  uint256 public currentAmount */\n    tag_12:\n      callvalue\n      dup1\n      iszero\n      tag_55\n      jumpi\n      0x00\n      dup1\n      revert\n    tag_55:\n      pop\n      tag_56\n      tag_57\n      jump\t// in\n    tag_56:\n      mload(0x40)\n      tag_58\n      swap2\n      swap1\n      tag_27\n      jump\t// in\n    tag_58:\n      mload(0x40)\n      dup1\n      swap2\n      sub\n      swap1\n      return\n        /* \"contracts/homework2/Project.sol\":438:465  Donation[] public donations */\n    tag_13:\n      callvalue\n      dup1\n      iszero\n      tag_59\n      jumpi\n      0x00\n      dup1\n      revert\n    tag_59:\n      pop\n      tag_60\n      0x04\n      dup1\n      calldatasize\n      sub\n      dup2\n      add\n      swap1\n      tag_61\n      swap2\n      swap1\n      tag_62\n      jump\t// in\n    tag_61:\n      tag_63\n      jump\t// in\n    tag_60:\n      mload(0x40)\n      tag_64\n      swap3\n      swap2\n      swap1\n      tag_65\n      jump\t// in\n    tag_64:\n      mload(0x40)\n      dup1\n      swap2\n      sub\n      swap1\n      return\n        /* \"contracts/homework2/Project.sol\":82:104  address public creator */\n    tag_17:\n      0x00\n      dup1\n      sload\n      swap1\n      0x0100\n      exp\n      swap1\n      div\n      0xffffffffffffffffffffffffffffffffffffffff\n      and\n      dup2\n      jump\t// out\n        /* \"contracts/homework2/Project.sol\":1625:1918  function withdrawFunds() external onlyCreator onlyAfterDeadline {... */\n    tag_22:\n        /* \"contracts/homework2/Project.sol\":788:795  creator */\n      0x00\n      dup1\n      sload\n      swap1\n      0x0100\n      exp\n      swap1\n      div\n      0xffffffffffffffffffffffffffffffffffffffff\n      and\n        /* \"contracts/homework2/Project.sol\":774:795  msg.sender == creator */\n      0xffffffffffffffffffffffffffffffffffffffff\n      and\n        /* \"contracts/homework2/Project.sol\":774:784  msg.sender */\n      caller\n        /* \"contracts/homework2/Project.sol\":774:795  msg.sender == creator */\n      0xffffffffffffffffffffffffffffffffffffffff\n      and\n      eq\n        /* \"contracts/homework2/Project.sol\":766:796  require(msg.sender == creator) */\n      tag_67\n      jumpi\n      0x00\n      dup1\n      revert\n    tag_67:\n        /* \"contracts/homework2/Project.sol\":890:898  deadline */\n      sload(0x03)\n        /* \"contracts/homework2/Project.sol\":872:887  block.timestamp */\n      timestamp\n        /* \"contracts/homework2/Project.sol\":872:898  block.timestamp > deadline */\n      gt\n        /* \"contracts/homework2/Project.sol\":864:922  require(block.timestamp > deadline, \"only after dealine!\") */\n      tag_69\n      jumpi\n      mload(0x40)\n      0x08c379a000000000000000000000000000000000000000000000000000000000\n      dup2\n      mstore\n      0x04\n      add\n      tag_70\n      swap1\n      tag_71\n      jump\t// in\n    tag_70:\n      mload(0x40)\n      dup1\n      swap2\n      sub\n      swap1\n      revert\n    tag_69:\n        /* \"contracts/homework2/Project.sol\":1717:1740  ProjectState.Successful */\n      0x01\n        /* \"contracts/homework2/Project.sol\":1708:1740  state == ProjectState.Successful */\n      0x02\n      dup2\n      gt\n      iszero\n      tag_73\n      jumpi\n      tag_74\n      tag_75\n      jump\t// in\n    tag_74:\n    tag_73:\n        /* \"contracts/homework2/Project.sol\":1708:1713  state */\n      0x05\n      0x00\n      swap1\n      sload\n      swap1\n      0x0100\n      exp\n      swap1\n      div\n      0xff\n      and\n        /* \"contracts/homework2/Project.sol\":1708:1740  state == ProjectState.Successful */\n      0x02\n      dup2\n      gt\n      iszero\n      tag_76\n      jumpi\n      tag_77\n      tag_75\n      jump\t// in\n    tag_77:\n    tag_76:\n      eq\n        /* \"contracts/homework2/Project.sol\":1700:1770  require(state == ProjectState.Successful, \"Project is not successful\") */\n      tag_78\n      jumpi\n      mload(0x40)\n      0x08c379a000000000000000000000000000000000000000000000000000000000\n      dup2\n      mstore\n      0x04\n      add\n      tag_79\n      swap1\n      tag_80\n      jump\t// in\n    tag_79:\n      mload(0x40)\n      dup1\n      swap2\n      sub\n      swap1\n      revert\n    tag_78:\n        /* \"contracts/homework2/Project.sol\":1781:1795  uint256 amount */\n      0x00\n        /* \"contracts/homework2/Project.sol\":1798:1819  address(this).balance */\n      selfbalance\n        /* \"contracts/homework2/Project.sol\":1781:1819  uint256 amount = address(this).balance */\n      swap1\n      pop\n        /* \"contracts/homework2/Project.sol\":1838:1845  creator */\n      0x00\n      dup1\n      sload\n      swap1\n      0x0100\n      exp\n      swap1\n      div\n      0xffffffffffffffffffffffffffffffffffffffff\n      and\n        /* \"contracts/homework2/Project.sol\":1830:1855  payable(creator).transfer */\n      0xffffffffffffffffffffffffffffffffffffffff\n      and\n        /* \"contracts/homework2/Project.sol\":1830:1863  payable(creator).transfer(amount) */\n      0x08fc\n        /* \"contracts/homework2/Project.sol\":1856:1862  amount */\n      dup3\n        /* \"contracts/homework2/Project.sol\":1830:1863  payable(creator).transfer(amount) */\n      swap1\n      dup2\n      iszero\n      mul\n      swap1\n      mload(0x40)\n      0x00\n      mload(0x40)\n      dup1\n      dup4\n      sub\n      dup2\n      dup6\n      dup9\n      dup9\n      call\n      swap4\n      pop\n      pop\n      pop\n      pop\n      iszero\n      dup1\n      iszero\n      tag_82\n      jumpi\n      returndatasize\n      0x00\n      dup1\n      returndatacopy\n      revert(0x00, returndatasize)\n    tag_82:\n      pop\n        /* \"contracts/homework2/Project.sol\":1894:1901  creator */\n      0x00\n      dup1\n      sload\n      swap1\n      0x0100\n      exp\n      swap1\n      div\n      0xffffffffffffffffffffffffffffffffffffffff\n      and\n        /* \"contracts/homework2/Project.sol\":1879:1910  FundsWithdrawn(creator, amount) */\n      0xffffffffffffffffffffffffffffffffffffffff\n      and\n      0xeaff4b37086828766ad3268786972c0cd24259d4c87a80f9d3963a3c3d999b0d\n        /* \"contracts/homework2/Project.sol\":1903:1909  amount */\n      dup3\n        /* \"contracts/homework2/Project.sol\":1879:1910  FundsWithdrawn(creator, amount) */\n      mload(0x40)\n      tag_83\n      swap2\n      swap1\n      tag_27\n      jump\t// in\n    tag_83:\n      mload(0x40)\n      dup1\n      swap2\n      sub\n      swap1\n      log2\n        /* \"contracts/homework2/Project.sol\":1689:1918  {... */\n      pop\n        /* \"contracts/homework2/Project.sol\":1625:1918  function withdrawFunds() external onlyCreator onlyAfterDeadline {... */\n      jump\t// out\n        /* \"contracts/homework2/Project.sol\":143:168  uint256 public goalAmount */\n    tag_25:\n      sload(0x02)\n      dup2\n      jump\t// out\n        /* \"contracts/homework2/Project.sol\":175:198  uint256 public deadline */\n    tag_30:\n      sload(0x03)\n      dup2\n      jump\t// out\n        /* \"contracts/homework2/Project.sol\":2427:2770  function updateProjectState() external onlyAfterDeadline {... */\n    tag_34:\n        /* \"contracts/homework2/Project.sol\":890:898  deadline */\n      sload(0x03)\n        /* \"contracts/homework2/Project.sol\":872:887  block.timestamp */\n      timestamp\n        /* \"contracts/homework2/Project.sol\":872:898  block.timestamp > deadline */\n      gt\n        /* \"contracts/homework2/Project.sol\":864:922  require(block.timestamp > deadline, \"only after dealine!\") */\n      tag_85\n      jumpi\n      mload(0x40)\n      0x08c379a000000000000000000000000000000000000000000000000000000000\n      dup2\n      mstore\n      0x04\n      add\n      tag_86\n      swap1\n      tag_71\n      jump\t// in\n    tag_86:\n      mload(0x40)\n      dup1\n      swap2\n      sub\n      swap1\n      revert\n    tag_85:\n        /* \"contracts/homework2/Project.sol\":2512:2532  ProjectState.Ongoing */\n      0x00\n        /* \"contracts/homework2/Project.sol\":2503:2532  state == ProjectState.Ongoing */\n      0x02\n      dup2\n      gt\n      iszero\n      tag_88\n      jumpi\n      tag_89\n      tag_75\n      jump\t// in\n    tag_89:\n    tag_88:\n        /* \"contracts/homework2/Project.sol\":2503:2508  state */\n      0x05\n      0x00\n      swap1\n      sload\n      swap1\n      0x0100\n      exp\n      swap1\n      div\n      0xff\n      and\n        /* \"contracts/homework2/Project.sol\":2503:2532  state == ProjectState.Ongoing */\n      0x02\n      dup2\n      gt\n      iszero\n      tag_90\n      jumpi\n      tag_91\n      tag_75\n      jump\t// in\n    tag_91:\n    tag_90:\n      eq\n        /* \"contracts/homework2/Project.sol\":2495:2559  require(state == ProjectState.Ongoing, \"Project is not ongoing\") */\n      tag_92\n      jumpi\n      mload(0x40)\n      0x08c379a000000000000000000000000000000000000000000000000000000000\n      dup2\n      mstore\n      0x04\n      add\n      tag_93\n      swap1\n      tag_94\n      jump\t// in\n    tag_93:\n      mload(0x40)\n      dup1\n      swap2\n      sub\n      swap1\n      revert\n    tag_92:\n        /* \"contracts/homework2/Project.sol\":2591:2601  goalAmount */\n      sload(0x02)\n        /* \"contracts/homework2/Project.sol\":2574:2587  currentAmount */\n      sload(0x04)\n        /* \"contracts/homework2/Project.sol\":2574:2601  currentAmount >= goalAmount */\n      lt\n        /* \"contracts/homework2/Project.sol\":2570:2721  if (currentAmount >= goalAmount) {... */\n      tag_95\n      jumpi\n        /* \"contracts/homework2/Project.sol\":2626:2649  ProjectState.Successful */\n      0x01\n        /* \"contracts/homework2/Project.sol\":2618:2623  state */\n      0x05\n      0x00\n        /* \"contracts/homework2/Project.sol\":2618:2649  state = ProjectState.Successful */\n      0x0100\n      exp\n      dup2\n      sload\n      dup2\n      0xff\n      mul\n      not\n      and\n      swap1\n      dup4\n      0x02\n      dup2\n      gt\n      iszero\n      tag_96\n      jumpi\n      tag_97\n      tag_75\n      jump\t// in\n    tag_97:\n    tag_96:\n      mul\n      or\n      swap1\n      sstore\n      pop\n        /* \"contracts/homework2/Project.sol\":2570:2721  if (currentAmount >= goalAmount) {... */\n      jump(tag_98)\n    tag_95:\n        /* \"contracts/homework2/Project.sol\":2690:2709  ProjectState.Failed */\n      0x02\n        /* \"contracts/homework2/Project.sol\":2682:2687  state */\n      0x05\n      0x00\n        /* \"contracts/homework2/Project.sol\":2682:2709  state = ProjectState.Failed */\n      0x0100\n      exp\n      dup2\n      sload\n      dup2\n      0xff\n      mul\n      not\n      and\n      swap1\n      dup4\n      0x02\n      dup2\n      gt\n      iszero\n      tag_99\n      jumpi\n      tag_100\n      tag_75\n      jump\t// in\n    tag_100:\n    tag_99:\n      mul\n      or\n      swap1\n      sstore\n      pop\n        /* \"contracts/homework2/Project.sol\":2570:2721  if (currentAmount >= goalAmount) {... */\n    tag_98:\n        /* \"contracts/homework2/Project.sol\":2736:2762  ProjectStateChanged(state) */\n      0x35bb0cd5f89def7829cadbfe305076fca9a4811f847e3ce1cd4e017651dda4d4\n        /* \"contracts/homework2/Project.sol\":2756:2761  state */\n      0x05\n      0x00\n      swap1\n      sload\n      swap1\n      0x0100\n      exp\n      swap1\n      div\n      0xff\n      and\n        /* \"contracts/homework2/Project.sol\":2736:2762  ProjectStateChanged(state) */\n      mload(0x40)\n      tag_101\n      swap2\n      swap1\n      tag_47\n      jump\t// in\n    tag_101:\n      mload(0x40)\n      dup1\n      swap2\n      sub\n      swap1\n      log1\n        /* \"contracts/homework2/Project.sol\":2427:2770  function updateProjectState() external onlyAfterDeadline {... */\n      jump\t// out\n        /* \"contracts/homework2/Project.sol\":1926:2419  function refund() external onlyAfterDeadline {... */\n    tag_37:\n        /* \"contracts/homework2/Project.sol\":890:898  deadline */\n      sload(0x03)\n        /* \"contracts/homework2/Project.sol\":872:887  block.timestamp */\n      timestamp\n        /* \"contracts/homework2/Project.sol\":872:898  block.timestamp > deadline */\n      gt\n        /* \"contracts/homework2/Project.sol\":864:922  require(block.timestamp > deadline, \"only after dealine!\") */\n      tag_103\n      jumpi\n      mload(0x40)\n      0x08c379a000000000000000000000000000000000000000000000000000000000\n      dup2\n      mstore\n      0x04\n      add\n      tag_104\n      swap1\n      tag_71\n      jump\t// in\n    tag_104:\n      mload(0x40)\n      dup1\n      swap2\n      sub\n      swap1\n      revert\n    tag_103:\n        /* \"contracts/homework2/Project.sol\":1999:2018  ProjectState.Failed */\n      0x02\n        /* \"contracts/homework2/Project.sol\":1990:2018  state == ProjectState.Failed */\n      dup1\n      dup2\n      gt\n      iszero\n      tag_106\n      jumpi\n      tag_107\n      tag_75\n      jump\t// in\n    tag_107:\n    tag_106:\n        /* \"contracts/homework2/Project.sol\":1990:1995  state */\n      0x05\n      0x00\n      swap1\n      sload\n      swap1\n      0x0100\n      exp\n      swap1\n      div\n      0xff\n      and\n        /* \"contracts/homework2/Project.sol\":1990:2018  state == ProjectState.Failed */\n      0x02\n      dup2\n      gt\n      iszero\n      tag_108\n      jumpi\n      tag_109\n      tag_75\n      jump\t// in\n    tag_109:\n    tag_108:\n      eq\n        /* \"contracts/homework2/Project.sol\":1982:2044  require(state == ProjectState.Failed, \"Project is not failed\") */\n      tag_110\n      jumpi\n      mload(0x40)\n      0x08c379a000000000000000000000000000000000000000000000000000000000\n      dup2\n      mstore\n      0x04\n      add\n      tag_111\n      swap1\n      tag_112\n      jump\t// in\n    tag_111:\n      mload(0x40)\n      dup1\n      swap2\n      sub\n      swap1\n      revert\n    tag_110:\n        /* \"contracts/homework2/Project.sol\":2055:2069  uint256 amount */\n      0x00\n        /* \"contracts/homework2/Project.sol\":2089:2098  uint256 i */\n      dup1\n        /* \"contracts/homework2/Project.sol\":2120:2121  1 */\n      0x01\n        /* \"contracts/homework2/Project.sol\":2101:2110  donations */\n      0x06\n        /* \"contracts/homework2/Project.sol\":2101:2117  donations.length */\n      dup1\n      sload\n      swap1\n      pop\n        /* \"contracts/homework2/Project.sol\":2101:2121  donations.length - 1 */\n      tag_116\n      swap2\n      swap1\n      tag_117\n      jump\t// in\n    tag_116:\n        /* \"contracts/homework2/Project.sol\":2089:2121  uint256 i = donations.length - 1 */\n      swap1\n      pop\n        /* \"contracts/homework2/Project.sol\":2084:2264  for (uint256 i = donations.length - 1; i >= 0; i--) {... */\n    tag_113:\n        /* \"contracts/homework2/Project.sol\":2128:2129  0 */\n      0x00\n        /* \"contracts/homework2/Project.sol\":2123:2124  i */\n      dup2\n        /* \"contracts/homework2/Project.sol\":2123:2129  i >= 0 */\n      lt\n        /* \"contracts/homework2/Project.sol\":2084:2264  for (uint256 i = donations.length - 1; i >= 0; i--) {... */\n      tag_114\n      jumpi\n        /* \"contracts/homework2/Project.sol\":2177:2187  msg.sender */\n      caller\n        /* \"contracts/homework2/Project.sol\":2155:2187  donations[i].donor == msg.sender */\n      0xffffffffffffffffffffffffffffffffffffffff\n      and\n        /* \"contracts/homework2/Project.sol\":2155:2164  donations */\n      0x06\n        /* \"contracts/homework2/Project.sol\":2165:2166  i */\n      dup3\n        /* \"contracts/homework2/Project.sol\":2155:2167  donations[i] */\n      dup2\n      sload\n      dup2\n      lt\n      tag_118\n      jumpi\n      tag_119\n      tag_120\n      jump\t// in\n    tag_119:\n    tag_118:\n      swap1\n      0x00\n      mstore\n      keccak256(0x00, 0x20)\n      swap1\n      0x02\n      mul\n      add\n        /* \"contracts/homework2/Project.sol\":2155:2173  donations[i].donor */\n      0x00\n      add\n      0x00\n      swap1\n      sload\n      swap1\n      0x0100\n      exp\n      swap1\n      div\n      0xffffffffffffffffffffffffffffffffffffffff\n      and\n        /* \"contracts/homework2/Project.sol\":2155:2187  donations[i].donor == msg.sender */\n      0xffffffffffffffffffffffffffffffffffffffff\n      and\n      sub\n        /* \"contracts/homework2/Project.sol\":2151:2253  if (donations[i].donor == msg.sender) {... */\n      tag_122\n      jumpi\n        /* \"contracts/homework2/Project.sol\":2218:2227  donations */\n      0x06\n        /* \"contracts/homework2/Project.sol\":2228:2229  i */\n      dup2\n        /* \"contracts/homework2/Project.sol\":2218:2230  donations[i] */\n      dup2\n      sload\n      dup2\n      lt\n      tag_123\n      jumpi\n      tag_124\n      tag_120\n      jump\t// in\n    tag_124:\n    tag_123:\n      swap1\n      0x00\n      mstore\n      keccak256(0x00, 0x20)\n      swap1\n      0x02\n      mul\n      add\n        /* \"contracts/homework2/Project.sol\":2218:2237  donations[i].amount */\n      0x01\n      add\n      sload\n        /* \"contracts/homework2/Project.sol\":2208:2237  amount += donations[i].amount */\n      dup3\n      tag_126\n      swap2\n      swap1\n      tag_127\n      jump\t// in\n    tag_126:\n      swap2\n      pop\n        /* \"contracts/homework2/Project.sol\":2151:2253  if (donations[i].donor == msg.sender) {... */\n    tag_122:\n        /* \"contracts/homework2/Project.sol\":2131:2134  i-- */\n      dup1\n      dup1\n      tag_128\n      swap1\n      tag_129\n      jump\t// in\n    tag_128:\n      swap2\n      pop\n      pop\n        /* \"contracts/homework2/Project.sol\":2084:2264  for (uint256 i = donations.length - 1; i >= 0; i--) {... */\n      jump(tag_113)\n    tag_114:\n      pop\n        /* \"contracts/homework2/Project.sol\":2291:2292  0 */\n      0x00\n        /* \"contracts/homework2/Project.sol\":2282:2288  amount */\n      dup2\n        /* \"contracts/homework2/Project.sol\":2282:2292  amount > 0 */\n      gt\n        /* \"contracts/homework2/Project.sol\":2274:2315  require(amount > 0, \"no funds to refund\") */\n      tag_130\n      jumpi\n      mload(0x40)\n      0x08c379a000000000000000000000000000000000000000000000000000000000\n      dup2\n      mstore\n      0x04\n      add\n      tag_131\n      swap1\n      tag_132\n      jump\t// in\n    tag_131:\n      mload(0x40)\n      dup1\n      swap2\n      sub\n      swap1\n      revert\n    tag_130:\n        /* \"contracts/homework2/Project.sol\":2334:2344  msg.sender */\n      caller\n        /* \"contracts/homework2/Project.sol\":2326:2354  payable(msg.sender).transfer */\n      0xffffffffffffffffffffffffffffffffffffffff\n      and\n        /* \"contracts/homework2/Project.sol\":2326:2362  payable(msg.sender).transfer(amount) */\n      0x08fc\n        /* \"contracts/homework2/Project.sol\":2355:2361  amount */\n      dup3\n        /* \"contracts/homework2/Project.sol\":2326:2362  payable(msg.sender).transfer(amount) */\n      swap1\n      dup2\n      iszero\n      mul\n      swap1\n      mload(0x40)\n      0x00\n      mload(0x40)\n      dup1\n      dup4\n      sub\n      dup2\n      dup6\n      dup9\n      dup9\n      call\n      swap4\n      pop\n      pop\n      pop\n      pop\n      iszero\n      dup1\n      iszero\n      tag_134\n      jumpi\n      returndatasize\n      0x00\n      dup1\n      returndatacopy\n      revert(0x00, returndatasize)\n    tag_134:\n      pop\n        /* \"contracts/homework2/Project.sol\":2392:2402  msg.sender */\n      caller\n        /* \"contracts/homework2/Project.sol\":2378:2411  FundsRefunded(msg.sender, amount) */\n      0xffffffffffffffffffffffffffffffffffffffff\n      and\n      0xbada1a1bf129e41a8af5abe00997bd8a8cb1770cb0cf68314eb4b1d6c4271397\n        /* \"contracts/homework2/Project.sol\":2404:2410  amount */\n      dup3\n        /* \"contracts/homework2/Project.sol\":2378:2411  FundsRefunded(msg.sender, amount) */\n      mload(0x40)\n      tag_135\n      swap2\n      swap1\n      tag_27\n      jump\t// in\n    tag_135:\n      mload(0x40)\n      dup1\n      swap2\n      sub\n      swap1\n      log2\n        /* \"contracts/homework2/Project.sol\":1971:2419  {... */\n      pop\n        /* \"contracts/homework2/Project.sol\":1926:2419  function refund() external onlyAfterDeadline {... */\n      jump\t// out\n        /* \"contracts/homework2/Project.sol\":111:136  string public description */\n    tag_40:\n      0x01\n      dup1\n      sload\n      tag_136\n      swap1\n      tag_137\n      jump\t// in\n    tag_136:\n      dup1\n      0x1f\n      add\n      0x20\n      dup1\n      swap2\n      div\n      mul\n      0x20\n      add\n      mload(0x40)\n      swap1\n      dup2\n      add\n      0x40\n      mstore\n      dup1\n      swap3\n      swap2\n      swap1\n      dup2\n      dup2\n      mstore\n      0x20\n      add\n      dup3\n      dup1\n      sload\n      tag_138\n      swap1\n      tag_137\n      jump\t// in\n    tag_138:\n      dup1\n      iszero\n      tag_139\n      jumpi\n      dup1\n      0x1f\n      lt\n      tag_140\n      jumpi\n      0x0100\n      dup1\n      dup4\n      sload\n      div\n      mul\n      dup4\n      mstore\n      swap2\n      0x20\n      add\n      swap2\n      jump(tag_139)\n    tag_140:\n      dup3\n      add\n      swap2\n      swap1\n      0x00\n      mstore\n      keccak256(0x00, 0x20)\n      swap1\n    tag_141:\n      dup2\n      sload\n      dup2\n      mstore\n      swap1\n      0x01\n      add\n      swap1\n      0x20\n      add\n      dup1\n      dup4\n      gt\n      tag_141\n      jumpi\n      dup3\n      swap1\n      sub\n      0x1f\n      and\n      dup3\n      add\n      swap2\n    tag_139:\n      pop\n      pop\n      pop\n      pop\n      pop\n      dup2\n      jump\t// out\n        /* \"contracts/homework2/Project.sol\":327:352  ProjectState public state */\n    tag_45:\n      0x05\n      0x00\n      swap1\n      sload\n      swap1\n      0x0100\n      exp\n      swap1\n      div\n      0xff\n      and\n      dup2\n      jump\t// out\n        /* \"contracts/homework2/Project.sol\":950:1260  function initialize(address _creator, string memory _description, uint256 _goalAmount, uint256 _duration) public {... */\n    tag_52:\n        /* \"contracts/homework2/Project.sol\":1084:1092  _creator */\n      dup4\n        /* \"contracts/homework2/Project.sol\":1074:1081  creator */\n      0x00\n      dup1\n        /* \"contracts/homework2/Project.sol\":1074:1092  creator = _creator */\n      0x0100\n      exp\n      dup2\n      sload\n      dup2\n      0xffffffffffffffffffffffffffffffffffffffff\n      mul\n      not\n      and\n      swap1\n      dup4\n      0xffffffffffffffffffffffffffffffffffffffff\n      and\n      mul\n      or\n      swap1\n      sstore\n      pop\n        /* \"contracts/homework2/Project.sol\":1117:1129  _description */\n      dup3\n        /* \"contracts/homework2/Project.sol\":1103:1114  description */\n      0x01\n        /* \"contracts/homework2/Project.sol\":1103:1129  description = _description */\n      swap1\n      dup2\n      tag_143\n      swap2\n      swap1\n      tag_144\n      jump\t// in\n    tag_143:\n      pop\n        /* \"contracts/homework2/Project.sol\":1153:1164  _goalAmount */\n      dup2\n        /* \"contracts/homework2/Project.sol\":1140:1150  goalAmount */\n      0x02\n        /* \"contracts/homework2/Project.sol\":1140:1164  goalAmount = _goalAmount */\n      dup2\n      swap1\n      sstore\n      pop\n        /* \"contracts/homework2/Project.sol\":1204:1213  _duration */\n      dup1\n        /* \"contracts/homework2/Project.sol\":1186:1201  block.timestamp */\n      timestamp\n        /* \"contracts/homework2/Project.sol\":1186:1213  block.timestamp + _duration */\n      tag_145\n      swap2\n      swap1\n      tag_127\n      jump\t// in\n    tag_145:\n        /* \"contracts/homework2/Project.sol\":1175:1183  deadline */\n      0x03\n        /* \"contracts/homework2/Project.sol\":1175:1213  deadline = block.timestamp + _duration */\n      dup2\n      swap1\n      sstore\n      pop\n        /* \"contracts/homework2/Project.sol\":1232:1252  ProjectState.Ongoing */\n      0x00\n        /* \"contracts/homework2/Project.sol\":1224:1229  state */\n      0x05\n      0x00\n        /* \"contracts/homework2/Project.sol\":1224:1252  state = ProjectState.Ongoing */\n      0x0100\n      exp\n      dup2\n      sload\n      dup2\n      0xff\n      mul\n      not\n      and\n      swap1\n      dup4\n      0x02\n      dup2\n      gt\n      iszero\n      tag_146\n      jumpi\n      tag_147\n      tag_75\n      jump\t// in\n    tag_147:\n    tag_146:\n      mul\n      or\n      swap1\n      sstore\n      pop\n        /* \"contracts/homework2/Project.sol\":950:1260  function initialize(address _creator, string memory _description, uint256 _goalAmount, uint256 _duration) public {... */\n      pop\n      pop\n      pop\n      pop\n      jump\t// out\n        /* \"contracts/homework2/Project.sol\":1268:1617  function donate() external payable {... */\n    tag_54:\n        /* \"contracts/homework2/Project.sol\":1331:1351  ProjectState.Ongoing */\n      0x00\n        /* \"contracts/homework2/Project.sol\":1322:1351  state == ProjectState.Ongoing */\n      0x02\n      dup2\n      gt\n      iszero\n      tag_149\n      jumpi\n      tag_150\n      tag_75\n      jump\t// in\n    tag_150:\n    tag_149:\n        /* \"contracts/homework2/Project.sol\":1322:1327  state */\n      0x05\n      0x00\n      swap1\n      sload\n      swap1\n      0x0100\n      exp\n      swap1\n      div\n      0xff\n      and\n        /* \"contracts/homework2/Project.sol\":1322:1351  state == ProjectState.Ongoing */\n      0x02\n      dup2\n      gt\n      iszero\n      tag_151\n      jumpi\n      tag_152\n      tag_75\n      jump\t// in\n    tag_152:\n    tag_151:\n      eq\n        /* \"contracts/homework2/Project.sol\":1314:1379  require(state == ProjectState.Ongoing, \"Project is not ongoing.\") */\n      tag_153\n      jumpi\n      mload(0x40)\n      0x08c379a000000000000000000000000000000000000000000000000000000000\n      dup2\n      mstore\n      0x04\n      add\n      tag_154\n      swap1\n      tag_155\n      jump\t// in\n    tag_154:\n      mload(0x40)\n      dup1\n      swap2\n      sub\n      swap1\n      revert\n    tag_153:\n        /* \"contracts/homework2/Project.sol\":1416:1424  deadline */\n      sload(0x03)\n        /* \"contracts/homework2/Project.sol\":1398:1413  block.timestamp */\n      timestamp\n        /* \"contracts/homework2/Project.sol\":1398:1424  block.timestamp < deadline */\n      lt\n        /* \"contracts/homework2/Project.sol\":1390:1457  require(block.timestamp < deadline, \"Project deadline has passed.\") */\n      tag_156\n      jumpi\n      mload(0x40)\n      0x08c379a000000000000000000000000000000000000000000000000000000000\n      dup2\n      mstore\n      0x04\n      add\n      tag_157\n      swap1\n      tag_158\n      jump\t// in\n    tag_157:\n      mload(0x40)\n      dup1\n      swap2\n      sub\n      swap1\n      revert\n    tag_156:\n        /* \"contracts/homework2/Project.sol\":1468:1477  donations */\n      0x06\n        /* \"contracts/homework2/Project.sol\":1483:1514  Donation(msg.sender, msg.value) */\n      mload(0x40)\n      dup1\n      0x40\n      add\n      0x40\n      mstore\n      dup1\n        /* \"contracts/homework2/Project.sol\":1492:1502  msg.sender */\n      caller\n        /* \"contracts/homework2/Project.sol\":1483:1514  Donation(msg.sender, msg.value) */\n      0xffffffffffffffffffffffffffffffffffffffff\n      and\n      dup2\n      mstore\n      0x20\n      add\n        /* \"contracts/homework2/Project.sol\":1504:1513  msg.value */\n      callvalue\n        /* \"contracts/homework2/Project.sol\":1483:1514  Donation(msg.sender, msg.value) */\n      dup2\n      mstore\n      pop\n        /* \"contracts/homework2/Project.sol\":1468:1515  donations.push(Donation(msg.sender, msg.value)) */\n      swap1\n      dup1\n      0x01\n      dup2\n      sload\n      add\n      dup1\n      dup3\n      sstore\n      dup1\n      swap2\n      pop\n      pop\n      0x01\n      swap1\n      sub\n      swap1\n      0x00\n      mstore\n      keccak256(0x00, 0x20)\n      swap1\n      0x02\n      mul\n      add\n      0x00\n      swap1\n      swap2\n      swap1\n      swap2\n      swap1\n      swap2\n      pop\n      0x00\n      dup3\n      add\n      mload\n      dup2\n      0x00\n      add\n      exp(0x0100, 0x00)\n      dup2\n      sload\n      dup2\n      0xffffffffffffffffffffffffffffffffffffffff\n      mul\n      not\n      and\n      swap1\n      dup4\n      0xffffffffffffffffffffffffffffffffffffffff\n      and\n      mul\n      or\n      swap1\n      sstore\n      pop\n      0x20\n      dup3\n      add\n      mload\n      dup2\n      0x01\n      add\n      sstore\n      pop\n      pop\n        /* \"contracts/homework2/Project.sol\":1543:1552  msg.value */\n      callvalue\n        /* \"contracts/homework2/Project.sol\":1526:1539  currentAmount */\n      0x04\n      0x00\n        /* \"contracts/homework2/Project.sol\":1526:1552  currentAmount += msg.value */\n      dup3\n      dup3\n      sload\n      tag_160\n      swap2\n      swap1\n      tag_127\n      jump\t// in\n    tag_160:\n      swap3\n      pop\n      pop\n      dup2\n      swap1\n      sstore\n      pop\n        /* \"contracts/homework2/Project.sol\":1585:1595  msg.sender */\n      caller\n        /* \"contracts/homework2/Project.sol\":1568:1607  DonationReceived(msg.sender, msg.value) */\n      0xffffffffffffffffffffffffffffffffffffffff\n      and\n      0x264f630d9efa0d07053a31163641d9fcc0adafc9d9e76f1c37c2ce3a558d2c52\n        /* \"contracts/homework2/Project.sol\":1597:1606  msg.value */\n      callvalue\n        /* \"contracts/homework2/Project.sol\":1568:1607  DonationReceived(msg.sender, msg.value) */\n      mload(0x40)\n      tag_161\n      swap2\n      swap1\n      tag_27\n      jump\t// in\n    tag_161:\n      mload(0x40)\n      dup1\n      swap2\n      sub\n      swap1\n      log2\n        /* \"contracts/homework2/Project.sol\":1268:1617  function donate() external payable {... */\n      jump\t// out\n        /* \"contracts/homework2/Project.sol\":205:233  uint256 public currentAmount */\n    tag_57:\n      sload(0x04)\n      dup2\n      jump\t// out\n        /* \"contracts/homework2/Project.sol\":438:465  Donation[] public donations */\n    tag_63:\n      0x06\n      dup2\n      dup2\n      sload\n      dup2\n      lt\n      tag_162\n      jumpi\n      0x00\n      dup1\n      revert\n    tag_162:\n      swap1\n      0x00\n      mstore\n      keccak256(0x00, 0x20)\n      swap1\n      0x02\n      mul\n      add\n      0x00\n      swap2\n      pop\n      swap1\n      pop\n      dup1\n      0x00\n      add\n      0x00\n      swap1\n      sload\n      swap1\n      0x0100\n      exp\n      swap1\n      div\n      0xffffffffffffffffffffffffffffffffffffffff\n      and\n      swap1\n      dup1\n      0x01\n      add\n      sload\n      swap1\n      pop\n      dup3\n      jump\t// out\n        /* \"#utility.yul\":7:133   */\n    tag_164:\n        /* \"#utility.yul\":44:51   */\n      0x00\n        /* \"#utility.yul\":84:126   */\n      0xffffffffffffffffffffffffffffffffffffffff\n        /* \"#utility.yul\":77:82   */\n      dup3\n        /* \"#utility.yul\":73:127   */\n      and\n        /* \"#utility.yul\":62:127   */\n      swap1\n      pop\n        /* \"#utility.yul\":7:133   */\n      swap2\n      swap1\n      pop\n      jump\t// out\n        /* \"#utility.yul\":139:235   */\n    tag_165:\n        /* \"#utility.yul\":176:183   */\n      0x00\n        /* \"#utility.yul\":205:229   */\n      tag_228\n        /* \"#utility.yul\":223:228   */\n      dup3\n        /* \"#utility.yul\":205:229   */\n      tag_164\n      jump\t// in\n    tag_228:\n        /* \"#utility.yul\":194:229   */\n      swap1\n      pop\n        /* \"#utility.yul\":139:235   */\n      swap2\n      swap1\n      pop\n      jump\t// out\n        /* \"#utility.yul\":241:359   */\n    tag_166:\n        /* \"#utility.yul\":328:352   */\n      tag_230\n        /* \"#utility.yul\":346:351   */\n      dup2\n        /* \"#utility.yul\":328:352   */\n      tag_165\n      jump\t// in\n    tag_230:\n        /* \"#utility.yul\":323:326   */\n      dup3\n        /* \"#utility.yul\":316:353   */\n      mstore\n        /* \"#utility.yul\":241:359   */\n      pop\n      pop\n      jump\t// out\n        /* \"#utility.yul\":365:587   */\n    tag_19:\n        /* \"#utility.yul\":458:462   */\n      0x00\n        /* \"#utility.yul\":496:498   */\n      0x20\n        /* \"#utility.yul\":485:494   */\n      dup3\n        /* \"#utility.yul\":481:499   */\n      add\n        /* \"#utility.yul\":473:499   */\n      swap1\n      pop\n        /* \"#utility.yul\":509:580   */\n      tag_232\n        /* \"#utility.yul\":577:578   */\n      0x00\n        /* \"#utility.yul\":566:575   */\n      dup4\n        /* \"#utility.yul\":562:579   */\n      add\n        /* \"#utility.yul\":553:559   */\n      dup5\n        /* \"#utility.yul\":509:580   */\n      tag_166\n      jump\t// in\n    tag_232:\n        /* \"#utility.yul\":365:587   */\n      swap3\n      swap2\n      pop\n      pop\n      jump\t// out\n        /* \"#utility.yul\":593:670   */\n    tag_167:\n        /* \"#utility.yul\":630:637   */\n      0x00\n        /* \"#utility.yul\":659:664   */\n      dup2\n        /* \"#utility.yul\":648:664   */\n      swap1\n      pop\n        /* \"#utility.yul\":593:670   */\n      swap2\n      swap1\n      pop\n      jump\t// out\n        /* \"#utility.yul\":676:794   */\n    tag_168:\n        /* \"#utility.yul\":763:787   */\n      tag_235\n        /* \"#utility.yul\":781:786   */\n      dup2\n        /* \"#utility.yul\":763:787   */\n      tag_167\n      jump\t// in\n    tag_235:\n        /* \"#utility.yul\":758:761   */\n      dup3\n        /* \"#utility.yul\":751:788   */\n      mstore\n        /* \"#utility.yul\":676:794   */\n      pop\n      pop\n      jump\t// out\n        /* \"#utility.yul\":800:1022   */\n    tag_27:\n        /* \"#utility.yul\":893:897   */\n      0x00\n        /* \"#utility.yul\":931:933   */\n      0x20\n        /* \"#utility.yul\":920:929   */\n      dup3\n        /* \"#utility.yul\":916:934   */\n      add\n        /* \"#utility.yul\":908:934   */\n      swap1\n      pop\n        /* \"#utility.yul\":944:1015   */\n      tag_237\n        /* \"#utility.yul\":1012:1013   */\n      0x00\n        /* \"#utility.yul\":1001:1010   */\n      dup4\n        /* \"#utility.yul\":997:1014   */\n      add\n        /* \"#utility.yul\":988:994   */\n      dup5\n        /* \"#utility.yul\":944:1015   */\n      tag_168\n      jump\t// in\n    tag_237:\n        /* \"#utility.yul\":800:1022   */\n      swap3\n      swap2\n      pop\n      pop\n      jump\t// out\n        /* \"#utility.yul\":1028:1127   */\n    tag_169:\n        /* \"#utility.yul\":1080:1086   */\n      0x00\n        /* \"#utility.yul\":1114:1119   */\n      dup2\n        /* \"#utility.yul\":1108:1120   */\n      mload\n        /* \"#utility.yul\":1098:1120   */\n      swap1\n      pop\n        /* \"#utility.yul\":1028:1127   */\n      swap2\n      swap1\n      pop\n      jump\t// out\n        /* \"#utility.yul\":1133:1302   */\n    tag_170:\n        /* \"#utility.yul\":1217:1228   */\n      0x00\n        /* \"#utility.yul\":1251:1257   */\n      dup3\n        /* \"#utility.yul\":1246:1249   */\n      dup3\n        /* \"#utility.yul\":1239:1258   */\n      mstore\n        /* \"#utility.yul\":1291:1295   */\n      0x20\n        /* \"#utility.yul\":1286:1289   */\n      dup3\n        /* \"#utility.yul\":1282:1296   */\n      add\n        /* \"#utility.yul\":1267:1296   */\n      swap1\n      pop\n        /* \"#utility.yul\":1133:1302   */\n      swap3\n      swap2\n      pop\n      pop\n      jump\t// out\n        /* \"#utility.yul\":1308:1447   */\n    tag_171:\n        /* \"#utility.yul\":1397:1403   */\n      dup3\n        /* \"#utility.yul\":1392:1395   */\n      dup2\n        /* \"#utility.yul\":1387:1390   */\n      dup4\n        /* \"#utility.yul\":1381:1404   */\n      mcopy\n        /* \"#utility.yul\":1438:1439   */\n      0x00\n        /* \"#utility.yul\":1429:1435   */\n      dup4\n        /* \"#utility.yul\":1424:1427   */\n      dup4\n        /* \"#utility.yul\":1420:1436   */\n      add\n        /* \"#utility.yul\":1413:1440   */\n      mstore\n        /* \"#utility.yul\":1308:1447   */\n      pop\n      pop\n      pop\n      jump\t// out\n        /* \"#utility.yul\":1453:1555   */\n    tag_172:\n        /* \"#utility.yul\":1494:1500   */\n      0x00\n        /* \"#utility.yul\":1545:1547   */\n      0x1f\n        /* \"#utility.yul\":1541:1548   */\n      not\n        /* \"#utility.yul\":1536:1538   */\n      0x1f\n        /* \"#utility.yul\":1529:1534   */\n      dup4\n        /* \"#utility.yul\":1525:1539   */\n      add\n        /* \"#utility.yul\":1521:1549   */\n      and\n        /* \"#utility.yul\":1511:1549   */\n      swap1\n      pop\n        /* \"#utility.yul\":1453:1555   */\n      swap2\n      swap1\n      pop\n      jump\t// out\n        /* \"#utility.yul\":1561:1938   */\n    tag_173:\n        /* \"#utility.yul\":1649:1652   */\n      0x00\n        /* \"#utility.yul\":1677:1716   */\n      tag_243\n        /* \"#utility.yul\":1710:1715   */\n      dup3\n        /* \"#utility.yul\":1677:1716   */\n      tag_169\n      jump\t// in\n    tag_243:\n        /* \"#utility.yul\":1732:1803   */\n      tag_244\n        /* \"#utility.yul\":1796:1802   */\n      dup2\n        /* \"#utility.yul\":1791:1794   */\n      dup6\n        /* \"#utility.yul\":1732:1803   */\n      tag_170\n      jump\t// in\n    tag_244:\n        /* \"#utility.yul\":1725:1803   */\n      swap4\n      pop\n        /* \"#utility.yul\":1812:1877   */\n      tag_245\n        /* \"#utility.yul\":1870:1876   */\n      dup2\n        /* \"#utility.yul\":1865:1868   */\n      dup6\n        /* \"#utility.yul\":1858:1862   */\n      0x20\n        /* \"#utility.yul\":1851:1856   */\n      dup7\n        /* \"#utility.yul\":1847:1863   */\n      add\n        /* \"#utility.yul\":1812:1877   */\n      tag_171\n      jump\t// in\n    tag_245:\n        /* \"#utility.yul\":1902:1931   */\n      tag_246\n        /* \"#utility.yul\":1924:1930   */\n      dup2\n        /* \"#utility.yul\":1902:1931   */\n      tag_172\n      jump\t// in\n    tag_246:\n        /* \"#utility.yul\":1897:1900   */\n      dup5\n        /* \"#utility.yul\":1893:1932   */\n      add\n        /* \"#utility.yul\":1886:1932   */\n      swap2\n      pop\n        /* \"#utility.yul\":1653:1938   */\n      pop\n        /* \"#utility.yul\":1561:1938   */\n      swap3\n      swap2\n      pop\n      pop\n      jump\t// out\n        /* \"#utility.yul\":1944:2257   */\n    tag_42:\n        /* \"#utility.yul\":2057:2061   */\n      0x00\n        /* \"#utility.yul\":2095:2097   */\n      0x20\n        /* \"#utility.yul\":2084:2093   */\n      dup3\n        /* \"#utility.yul\":2080:2098   */\n      add\n        /* \"#utility.yul\":2072:2098   */\n      swap1\n      pop\n        /* \"#utility.yul\":2144:2153   */\n      dup2\n        /* \"#utility.yul\":2138:2142   */\n      dup2\n        /* \"#utility.yul\":2134:2154   */\n      sub\n        /* \"#utility.yul\":2130:2131   */\n      0x00\n        /* \"#utility.yul\":2119:2128   */\n      dup4\n        /* \"#utility.yul\":2115:2132   */\n      add\n        /* \"#utility.yul\":2108:2155   */\n      mstore\n        /* \"#utility.yul\":2172:2250   */\n      tag_248\n        /* \"#utility.yul\":2245:2249   */\n      dup2\n        /* \"#utility.yul\":2236:2242   */\n      dup5\n        /* \"#utility.yul\":2172:2250   */\n      tag_173\n      jump\t// in\n    tag_248:\n        /* \"#utility.yul\":2164:2250   */\n      swap1\n      pop\n        /* \"#utility.yul\":1944:2257   */\n      swap3\n      swap2\n      pop\n      pop\n      jump\t// out\n        /* \"#utility.yul\":2263:2443   */\n    tag_75:\n        /* \"#utility.yul\":2311:2388   */\n      0x4e487b7100000000000000000000000000000000000000000000000000000000\n        /* \"#utility.yul\":2308:2309   */\n      0x00\n        /* \"#utility.yul\":2301:2389   */\n      mstore\n        /* \"#utility.yul\":2408:2412   */\n      0x21\n        /* \"#utility.yul\":2405:2406   */\n      0x04\n        /* \"#utility.yul\":2398:2413   */\n      mstore\n        /* \"#utility.yul\":2432:2436   */\n      0x24\n        /* \"#utility.yul\":2429:2430   */\n      0x00\n        /* \"#utility.yul\":2422:2437   */\n      revert\n        /* \"#utility.yul\":2449:2571   */\n    tag_174:\n        /* \"#utility.yul\":2539:2540   */\n      0x03\n        /* \"#utility.yul\":2532:2537   */\n      dup2\n        /* \"#utility.yul\":2529:2541   */\n      lt\n        /* \"#utility.yul\":2519:2565   */\n      tag_251\n      jumpi\n        /* \"#utility.yul\":2545:2563   */\n      tag_252\n      tag_75\n      jump\t// in\n    tag_252:\n        /* \"#utility.yul\":2519:2565   */\n    tag_251:\n        /* \"#utility.yul\":2449:2571   */\n      pop\n      jump\t// out\n        /* \"#utility.yul\":2577:2722   */\n    tag_175:\n        /* \"#utility.yul\":2631:2638   */\n      0x00\n        /* \"#utility.yul\":2660:2665   */\n      dup2\n        /* \"#utility.yul\":2649:2665   */\n      swap1\n      pop\n        /* \"#utility.yul\":2666:2716   */\n      tag_254\n        /* \"#utility.yul\":2710:2715   */\n      dup3\n        /* \"#utility.yul\":2666:2716   */\n      tag_174\n      jump\t// in\n    tag_254:\n        /* \"#utility.yul\":2577:2722   */\n      swap2\n      swap1\n      pop\n      jump\t// out\n        /* \"#utility.yul\":2728:2873   */\n    tag_176:\n        /* \"#utility.yul\":2793:2802   */\n      0x00\n        /* \"#utility.yul\":2826:2867   */\n      tag_256\n        /* \"#utility.yul\":2861:2866   */\n      dup3\n        /* \"#utility.yul\":2826:2867   */\n      tag_175\n      jump\t// in\n    tag_256:\n        /* \"#utility.yul\":2813:2867   */\n      swap1\n      pop\n        /* \"#utility.yul\":2728:2873   */\n      swap2\n      swap1\n      pop\n      jump\t// out\n        /* \"#utility.yul\":2879:3040   */\n    tag_177:\n        /* \"#utility.yul\":2981:3033   */\n      tag_258\n        /* \"#utility.yul\":3027:3032   */\n      dup2\n        /* \"#utility.yul\":2981:3033   */\n      tag_176\n      jump\t// in\n    tag_258:\n        /* \"#utility.yul\":2976:2979   */\n      dup3\n        /* \"#utility.yul\":2969:3034   */\n      mstore\n        /* \"#utility.yul\":2879:3040   */\n      pop\n      pop\n      jump\t// out\n        /* \"#utility.yul\":3046:3298   */\n    tag_47:\n        /* \"#utility.yul\":3154:3158   */\n      0x00\n        /* \"#utility.yul\":3192:3194   */\n      0x20\n        /* \"#utility.yul\":3181:3190   */\n      dup3\n        /* \"#utility.yul\":3177:3195   */\n      add\n        /* \"#utility.yul\":3169:3195   */\n      swap1\n      pop\n        /* \"#utility.yul\":3205:3291   */\n      tag_260\n        /* \"#utility.yul\":3288:3289   */\n      0x00\n        /* \"#utility.yul\":3277:3286   */\n      dup4\n        /* \"#utility.yul\":3273:3290   */\n      add\n        /* \"#utility.yul\":3264:3270   */\n      dup5\n        /* \"#utility.yul\":3205:3291   */\n      tag_177\n      jump\t// in\n    tag_260:\n        /* \"#utility.yul\":3046:3298   */\n      swap3\n      swap2\n      pop\n      pop\n      jump\t// out\n        /* \"#utility.yul\":3304:3379   */\n    tag_178:\n        /* \"#utility.yul\":3337:3343   */\n      0x00\n        /* \"#utility.yul\":3370:3372   */\n      0x40\n        /* \"#utility.yul\":3364:3373   */\n      mload\n        /* \"#utility.yul\":3354:3373   */\n      swap1\n      pop\n        /* \"#utility.yul\":3304:3379   */\n      swap1\n      jump\t// out\n        /* \"#utility.yul\":3385:3502   */\n    tag_179:\n        /* \"#utility.yul\":3494:3495   */\n      0x00\n        /* \"#utility.yul\":3491:3492   */\n      dup1\n        /* \"#utility.yul\":3484:3496   */\n      revert\n        /* \"#utility.yul\":3508:3625   */\n    tag_180:\n        /* \"#utility.yul\":3617:3618   */\n      0x00\n        /* \"#utility.yul\":3614:3615   */\n      dup1\n        /* \"#utility.yul\":3607:3619   */\n      revert\n        /* \"#utility.yul\":3631:3753   */\n    tag_181:\n        /* \"#utility.yul\":3704:3728   */\n      tag_265\n        /* \"#utility.yul\":3722:3727   */\n      dup2\n        /* \"#utility.yul\":3704:3728   */\n      tag_165\n      jump\t// in\n    tag_265:\n        /* \"#utility.yul\":3697:3702   */\n      dup2\n        /* \"#utility.yul\":3694:3729   */\n      eq\n        /* \"#utility.yul\":3684:3747   */\n      tag_266\n      jumpi\n        /* \"#utility.yul\":3743:3744   */\n      0x00\n        /* \"#utility.yul\":3740:3741   */\n      dup1\n        /* \"#utility.yul\":3733:3745   */\n      revert\n        /* \"#utility.yul\":3684:3747   */\n    tag_266:\n        /* \"#utility.yul\":3631:3753   */\n      pop\n      jump\t// out\n        /* \"#utility.yul\":3759:3898   */\n    tag_182:\n        /* \"#utility.yul\":3805:3810   */\n      0x00\n        /* \"#utility.yul\":3843:3849   */\n      dup2\n        /* \"#utility.yul\":3830:3850   */\n      calldataload\n        /* \"#utility.yul\":3821:3850   */\n      swap1\n      pop\n        /* \"#utility.yul\":3859:3892   */\n      tag_268\n        /* \"#utility.yul\":3886:3891   */\n      dup2\n        /* \"#utility.yul\":3859:3892   */\n      tag_181\n      jump\t// in\n    tag_268:\n        /* \"#utility.yul\":3759:3898   */\n      swap3\n      swap2\n      pop\n      pop\n      jump\t// out\n        /* \"#utility.yul\":3904:4021   */\n    tag_183:\n        /* \"#utility.yul\":4013:4014   */\n      0x00\n        /* \"#utility.yul\":4010:4011   */\n      dup1\n        /* \"#utility.yul\":4003:4015   */\n      revert\n        /* \"#utility.yul\":4027:4144   */\n    tag_184:\n        /* \"#utility.yul\":4136:4137   */\n      0x00\n        /* \"#utility.yul\":4133:4134   */\n      dup1\n        /* \"#utility.yul\":4126:4138   */\n      revert\n        /* \"#utility.yul\":4150:4330   */\n    tag_185:\n        /* \"#utility.yul\":4198:4275   */\n      0x4e487b7100000000000000000000000000000000000000000000000000000000\n        /* \"#utility.yul\":4195:4196   */\n      0x00\n        /* \"#utility.yul\":4188:4276   */\n      mstore\n        /* \"#utility.yul\":4295:4299   */\n      0x41\n        /* \"#utility.yul\":4292:4293   */\n      0x04\n        /* \"#utility.yul\":4285:4300   */\n      mstore\n        /* \"#utility.yul\":4319:4323   */\n      0x24\n        /* \"#utility.yul\":4316:4317   */\n      0x00\n        /* \"#utility.yul\":4309:4324   */\n      revert\n        /* \"#utility.yul\":4336:4617   */\n    tag_186:\n        /* \"#utility.yul\":4419:4446   */\n      tag_273\n        /* \"#utility.yul\":4441:4445   */\n      dup3\n        /* \"#utility.yul\":4419:4446   */\n      tag_172\n      jump\t// in\n    tag_273:\n        /* \"#utility.yul\":4411:4417   */\n      dup2\n        /* \"#utility.yul\":4407:4447   */\n      add\n        /* \"#utility.yul\":4549:4555   */\n      dup2\n        /* \"#utility.yul\":4537:4547   */\n      dup2\n        /* \"#utility.yul\":4534:4556   */\n      lt\n        /* \"#utility.yul\":4513:4531   */\n      0xffffffffffffffff\n        /* \"#utility.yul\":4501:4511   */\n      dup3\n        /* \"#utility.yul\":4498:4532   */\n      gt\n        /* \"#utility.yul\":4495:4557   */\n      or\n        /* \"#utility.yul\":4492:4580   */\n      iszero\n      tag_274\n      jumpi\n        /* \"#utility.yul\":4560:4578   */\n      tag_275\n      tag_185\n      jump\t// in\n    tag_275:\n        /* \"#utility.yul\":4492:4580   */\n    tag_274:\n        /* \"#utility.yul\":4600:4610   */\n      dup1\n        /* \"#utility.yul\":4596:4598   */\n      0x40\n        /* \"#utility.yul\":4589:4611   */\n      mstore\n        /* \"#utility.yul\":4379:4617   */\n      pop\n        /* \"#utility.yul\":4336:4617   */\n      pop\n      pop\n      jump\t// out\n        /* \"#utility.yul\":4623:4752   */\n    tag_187:\n        /* \"#utility.yul\":4657:4663   */\n      0x00\n        /* \"#utility.yul\":4684:4704   */\n      tag_277\n      tag_178\n      jump\t// in\n    tag_277:\n        /* \"#utility.yul\":4674:4704   */\n      swap1\n      pop\n        /* \"#utility.yul\":4713:4746   */\n      tag_278\n        /* \"#utility.yul\":4741:4745   */\n      dup3\n        /* \"#utility.yul\":4733:4739   */\n      dup3\n        /* \"#utility.yul\":4713:4746   */\n      tag_186\n      jump\t// in\n    tag_278:\n        /* \"#utility.yul\":4623:4752   */\n      swap2\n      swap1\n      pop\n      jump\t// out\n        /* \"#utility.yul\":4758:5066   */\n    tag_188:\n        /* \"#utility.yul\":4820:4824   */\n      0x00\n        /* \"#utility.yul\":4910:4928   */\n      0xffffffffffffffff\n        /* \"#utility.yul\":4902:4908   */\n      dup3\n        /* \"#utility.yul\":4899:4929   */\n      gt\n        /* \"#utility.yul\":4896:4952   */\n      iszero\n      tag_280\n      jumpi\n        /* \"#utility.yul\":4932:4950   */\n      tag_281\n      tag_185\n      jump\t// in\n    tag_281:\n        /* \"#utility.yul\":4896:4952   */\n    tag_280:\n        /* \"#utility.yul\":4970:4999   */\n      tag_282\n        /* \"#utility.yul\":4992:4998   */\n      dup3\n        /* \"#utility.yul\":4970:4999   */\n      tag_172\n      jump\t// in\n    tag_282:\n        /* \"#utility.yul\":4962:4999   */\n      swap1\n      pop\n        /* \"#utility.yul\":5054:5058   */\n      0x20\n        /* \"#utility.yul\":5048:5052   */\n      dup2\n        /* \"#utility.yul\":5044:5059   */\n      add\n        /* \"#utility.yul\":5036:5059   */\n      swap1\n      pop\n        /* \"#utility.yul\":4758:5066   */\n      swap2\n      swap1\n      pop\n      jump\t// out\n        /* \"#utility.yul\":5072:5220   */\n    tag_189:\n        /* \"#utility.yul\":5170:5176   */\n      dup3\n        /* \"#utility.yul\":5165:5168   */\n      dup2\n        /* \"#utility.yul\":5160:5163   */\n      dup4\n        /* \"#utility.yul\":5147:5177   */\n      calldatacopy\n        /* \"#utility.yul\":5211:5212   */\n      0x00\n        /* \"#utility.yul\":5202:5208   */\n      dup4\n        /* \"#utility.yul\":5197:5200   */\n      dup4\n        /* \"#utility.yul\":5193:5209   */\n      add\n        /* \"#utility.yul\":5186:5213   */\n      mstore\n        /* \"#utility.yul\":5072:5220   */\n      pop\n      pop\n      pop\n      jump\t// out\n        /* \"#utility.yul\":5226:5651   */\n    tag_190:\n        /* \"#utility.yul\":5304:5309   */\n      0x00\n        /* \"#utility.yul\":5329:5395   */\n      tag_285\n        /* \"#utility.yul\":5345:5394   */\n      tag_286\n        /* \"#utility.yul\":5387:5393   */\n      dup5\n        /* \"#utility.yul\":5345:5394   */\n      tag_188\n      jump\t// in\n    tag_286:\n        /* \"#utility.yul\":5329:5395   */\n      tag_187\n      jump\t// in\n    tag_285:\n        /* \"#utility.yul\":5320:5395   */\n      swap1\n      pop\n        /* \"#utility.yul\":5418:5424   */\n      dup3\n        /* \"#utility.yul\":5411:5416   */\n      dup2\n        /* \"#utility.yul\":5404:5425   */\n      mstore\n        /* \"#utility.yul\":5456:5460   */\n      0x20\n        /* \"#utility.yul\":5449:5454   */\n      dup2\n        /* \"#utility.yul\":5445:5461   */\n      add\n        /* \"#utility.yul\":5494:5497   */\n      dup5\n        /* \"#utility.yul\":5485:5491   */\n      dup5\n        /* \"#utility.yul\":5480:5483   */\n      dup5\n        /* \"#utility.yul\":5476:5492   */\n      add\n        /* \"#utility.yul\":5473:5498   */\n      gt\n        /* \"#utility.yul\":5470:5582   */\n      iszero\n      tag_287\n      jumpi\n        /* \"#utility.yul\":5501:5580   */\n      tag_288\n      tag_184\n      jump\t// in\n    tag_288:\n        /* \"#utility.yul\":5470:5582   */\n    tag_287:\n        /* \"#utility.yul\":5591:5645   */\n      tag_289\n        /* \"#utility.yul\":5638:5644   */\n      dup5\n        /* \"#utility.yul\":5633:5636   */\n      dup3\n        /* \"#utility.yul\":5628:5631   */\n      dup6\n        /* \"#utility.yul\":5591:5645   */\n      tag_189\n      jump\t// in\n    tag_289:\n        /* \"#utility.yul\":5310:5651   */\n      pop\n        /* \"#utility.yul\":5226:5651   */\n      swap4\n      swap3\n      pop\n      pop\n      pop\n      jump\t// out\n        /* \"#utility.yul\":5671:6011   */\n    tag_191:\n        /* \"#utility.yul\":5727:5732   */\n      0x00\n        /* \"#utility.yul\":5776:5779   */\n      dup3\n        /* \"#utility.yul\":5769:5773   */\n      0x1f\n        /* \"#utility.yul\":5761:5767   */\n      dup4\n        /* \"#utility.yul\":5757:5774   */\n      add\n        /* \"#utility.yul\":5753:5780   */\n      slt\n        /* \"#utility.yul\":5743:5865   */\n      tag_291\n      jumpi\n        /* \"#utility.yul\":5784:5863   */\n      tag_292\n      tag_183\n      jump\t// in\n    tag_292:\n        /* \"#utility.yul\":5743:5865   */\n    tag_291:\n        /* \"#utility.yul\":5901:5907   */\n      dup2\n        /* \"#utility.yul\":5888:5908   */\n      calldataload\n        /* \"#utility.yul\":5926:6005   */\n      tag_293\n        /* \"#utility.yul\":6001:6004   */\n      dup5\n        /* \"#utility.yul\":5993:5999   */\n      dup3\n        /* \"#utility.yul\":5986:5990   */\n      0x20\n        /* \"#utility.yul\":5978:5984   */\n      dup7\n        /* \"#utility.yul\":5974:5991   */\n      add\n        /* \"#utility.yul\":5926:6005   */\n      tag_190\n      jump\t// in\n    tag_293:\n        /* \"#utility.yul\":5917:6005   */\n      swap2\n      pop\n        /* \"#utility.yul\":5733:6011   */\n      pop\n        /* \"#utility.yul\":5671:6011   */\n      swap3\n      swap2\n      pop\n      pop\n      jump\t// out\n        /* \"#utility.yul\":6017:6139   */\n    tag_192:\n        /* \"#utility.yul\":6090:6114   */\n      tag_295\n        /* \"#utility.yul\":6108:6113   */\n      dup2\n        /* \"#utility.yul\":6090:6114   */\n      tag_167\n      jump\t// in\n    tag_295:\n        /* \"#utility.yul\":6083:6088   */\n      dup2\n        /* \"#utility.yul\":6080:6115   */\n      eq\n        /* \"#utility.yul\":6070:6133   */\n      tag_296\n      jumpi\n        /* \"#utility.yul\":6129:6130   */\n      0x00\n        /* \"#utility.yul\":6126:6127   */\n      dup1\n        /* \"#utility.yul\":6119:6131   */\n      revert\n        /* \"#utility.yul\":6070:6133   */\n    tag_296:\n        /* \"#utility.yul\":6017:6139   */\n      pop\n      jump\t// out\n        /* \"#utility.yul\":6145:6284   */\n    tag_193:\n        /* \"#utility.yul\":6191:6196   */\n      0x00\n        /* \"#utility.yul\":6229:6235   */\n      dup2\n        /* \"#utility.yul\":6216:6236   */\n      calldataload\n        /* \"#utility.yul\":6207:6236   */\n      swap1\n      pop\n        /* \"#utility.yul\":6245:6278   */\n      tag_298\n        /* \"#utility.yul\":6272:6277   */\n      dup2\n        /* \"#utility.yul\":6245:6278   */\n      tag_192\n      jump\t// in\n    tag_298:\n        /* \"#utility.yul\":6145:6284   */\n      swap3\n      swap2\n      pop\n      pop\n      jump\t// out\n        /* \"#utility.yul\":6290:7235   */\n    tag_51:\n        /* \"#utility.yul\":6386:6392   */\n      0x00\n        /* \"#utility.yul\":6394:6400   */\n      dup1\n        /* \"#utility.yul\":6402:6408   */\n      0x00\n        /* \"#utility.yul\":6410:6416   */\n      dup1\n        /* \"#utility.yul\":6459:6462   */\n      0x80\n        /* \"#utility.yul\":6447:6456   */\n      dup6\n        /* \"#utility.yul\":6438:6445   */\n      dup8\n        /* \"#utility.yul\":6434:6457   */\n      sub\n        /* \"#utility.yul\":6430:6463   */\n      slt\n        /* \"#utility.yul\":6427:6547   */\n      iszero\n      tag_300\n      jumpi\n        /* \"#utility.yul\":6466:6545   */\n      tag_301\n      tag_179\n      jump\t// in\n    tag_301:\n        /* \"#utility.yul\":6427:6547   */\n    tag_300:\n        /* \"#utility.yul\":6586:6587   */\n      0x00\n        /* \"#utility.yul\":6611:6664   */\n      tag_302\n        /* \"#utility.yul\":6656:6663   */\n      dup8\n        /* \"#utility.yul\":6647:6653   */\n      dup3\n        /* \"#utility.yul\":6636:6645   */\n      dup9\n        /* \"#utility.yul\":6632:6654   */\n      add\n        /* \"#utility.yul\":6611:6664   */\n      tag_182\n      jump\t// in\n    tag_302:\n        /* \"#utility.yul\":6601:6664   */\n      swap5\n      pop\n        /* \"#utility.yul\":6557:6674   */\n      pop\n        /* \"#utility.yul\":6741:6743   */\n      0x20\n        /* \"#utility.yul\":6730:6739   */\n      dup6\n        /* \"#utility.yul\":6726:6744   */\n      add\n        /* \"#utility.yul\":6713:6745   */\n      calldataload\n        /* \"#utility.yul\":6772:6790   */\n      0xffffffffffffffff\n        /* \"#utility.yul\":6764:6770   */\n      dup2\n        /* \"#utility.yul\":6761:6791   */\n      gt\n        /* \"#utility.yul\":6758:6875   */\n      iszero\n      tag_303\n      jumpi\n        /* \"#utility.yul\":6794:6873   */\n      tag_304\n      tag_180\n      jump\t// in\n    tag_304:\n        /* \"#utility.yul\":6758:6875   */\n    tag_303:\n        /* \"#utility.yul\":6899:6962   */\n      tag_305\n        /* \"#utility.yul\":6954:6961   */\n      dup8\n        /* \"#utility.yul\":6945:6951   */\n      dup3\n        /* \"#utility.yul\":6934:6943   */\n      dup9\n        /* \"#utility.yul\":6930:6952   */\n      add\n        /* \"#utility.yul\":6899:6962   */\n      tag_191\n      jump\t// in\n    tag_305:\n        /* \"#utility.yul\":6889:6962   */\n      swap4\n      pop\n        /* \"#utility.yul\":6684:6972   */\n      pop\n        /* \"#utility.yul\":7011:7013   */\n      0x40\n        /* \"#utility.yul\":7037:7090   */\n      tag_306\n        /* \"#utility.yul\":7082:7089   */\n      dup8\n        /* \"#utility.yul\":7073:7079   */\n      dup3\n        /* \"#utility.yul\":7062:7071   */\n      dup9\n        /* \"#utility.yul\":7058:7080   */\n      add\n        /* \"#utility.yul\":7037:7090   */\n      tag_193\n      jump\t// in\n    tag_306:\n        /* \"#utility.yul\":7027:7090   */\n      swap3\n      pop\n        /* \"#utility.yul\":6982:7100   */\n      pop\n        /* \"#utility.yul\":7139:7141   */\n      0x60\n        /* \"#utility.yul\":7165:7218   */\n      tag_307\n        /* \"#utility.yul\":7210:7217   */\n      dup8\n        /* \"#utility.yul\":7201:7207   */\n      dup3\n        /* \"#utility.yul\":7190:7199   */\n      dup9\n        /* \"#utility.yul\":7186:7208   */\n      add\n        /* \"#utility.yul\":7165:7218   */\n      tag_193\n      jump\t// in\n    tag_307:\n        /* \"#utility.yul\":7155:7218   */\n      swap2\n      pop\n        /* \"#utility.yul\":7110:7228   */\n      pop\n        /* \"#utility.yul\":6290:7235   */\n      swap3\n      swap6\n      swap2\n      swap5\n      pop\n      swap3\n      pop\n      jump\t// out\n        /* \"#utility.yul\":7241:7570   */\n    tag_62:\n        /* \"#utility.yul\":7300:7306   */\n      0x00\n        /* \"#utility.yul\":7349:7351   */\n      0x20\n        /* \"#utility.yul\":7337:7346   */\n      dup3\n        /* \"#utility.yul\":7328:7335   */\n      dup5\n        /* \"#utility.yul\":7324:7347   */\n      sub\n        /* \"#utility.yul\":7320:7352   */\n      slt\n        /* \"#utility.yul\":7317:7436   */\n      iszero\n      tag_309\n      jumpi\n        /* \"#utility.yul\":7355:7434   */\n      tag_310\n      tag_179\n      jump\t// in\n    tag_310:\n        /* \"#utility.yul\":7317:7436   */\n    tag_309:\n        /* \"#utility.yul\":7475:7476   */\n      0x00\n        /* \"#utility.yul\":7500:7553   */\n      tag_311\n        /* \"#utility.yul\":7545:7552   */\n      dup5\n        /* \"#utility.yul\":7536:7542   */\n      dup3\n        /* \"#utility.yul\":7525:7534   */\n      dup6\n        /* \"#utility.yul\":7521:7543   */\n      add\n        /* \"#utility.yul\":7500:7553   */\n      tag_193\n      jump\t// in\n    tag_311:\n        /* \"#utility.yul\":7490:7553   */\n      swap2\n      pop\n        /* \"#utility.yul\":7446:7563   */\n      pop\n        /* \"#utility.yul\":7241:7570   */\n      swap3\n      swap2\n      pop\n      pop\n      jump\t// out\n        /* \"#utility.yul\":7576:7908   */\n    tag_65:\n        /* \"#utility.yul\":7697:7701   */\n      0x00\n        /* \"#utility.yul\":7735:7737   */\n      0x40\n        /* \"#utility.yul\":7724:7733   */\n      dup3\n        /* \"#utility.yul\":7720:7738   */\n      add\n        /* \"#utility.yul\":7712:7738   */\n      swap1\n      pop\n        /* \"#utility.yul\":7748:7819   */\n      tag_313\n        /* \"#utility.yul\":7816:7817   */\n      0x00\n        /* \"#utility.yul\":7805:7814   */\n      dup4\n        /* \"#utility.yul\":7801:7818   */\n      add\n        /* \"#utility.yul\":7792:7798   */\n      dup6\n        /* \"#utility.yul\":7748:7819   */\n      tag_166\n      jump\t// in\n    tag_313:\n        /* \"#utility.yul\":7829:7901   */\n      tag_314\n        /* \"#utility.yul\":7897:7899   */\n      0x20\n        /* \"#utility.yul\":7886:7895   */\n      dup4\n        /* \"#utility.yul\":7882:7900   */\n      add\n        /* \"#utility.yul\":7873:7879   */\n      dup5\n        /* \"#utility.yul\":7829:7901   */\n      tag_168\n      jump\t// in\n    tag_314:\n        /* \"#utility.yul\":7576:7908   */\n      swap4\n      swap3\n      pop\n      pop\n      pop\n      jump\t// out\n        /* \"#utility.yul\":7914:8083   */\n    tag_194:\n        /* \"#utility.yul\":8054:8075   */\n      0x6f6e6c79206166746572206465616c696e652100000000000000000000000000\n        /* \"#utility.yul\":8050:8051   */\n      0x00\n        /* \"#utility.yul\":8042:8048   */\n      dup3\n        /* \"#utility.yul\":8038:8052   */\n      add\n        /* \"#utility.yul\":8031:8076   */\n      mstore\n        /* \"#utility.yul\":7914:8083   */\n      pop\n      jump\t// out\n        /* \"#utility.yul\":8089:8455   */\n    tag_195:\n        /* \"#utility.yul\":8231:8234   */\n      0x00\n        /* \"#utility.yul\":8252:8319   */\n      tag_317\n        /* \"#utility.yul\":8316:8318   */\n      0x13\n        /* \"#utility.yul\":8311:8314   */\n      dup4\n        /* \"#utility.yul\":8252:8319   */\n      tag_170\n      jump\t// in\n    tag_317:\n        /* \"#utility.yul\":8245:8319   */\n      swap2\n      pop\n        /* \"#utility.yul\":8328:8421   */\n      tag_318\n        /* \"#utility.yul\":8417:8420   */\n      dup3\n        /* \"#utility.yul\":8328:8421   */\n      tag_194\n      jump\t// in\n    tag_318:\n        /* \"#utility.yul\":8446:8448   */\n      0x20\n        /* \"#utility.yul\":8441:8444   */\n      dup3\n        /* \"#utility.yul\":8437:8449   */\n      add\n        /* \"#utility.yul\":8430:8449   */\n      swap1\n      pop\n        /* \"#utility.yul\":8089:8455   */\n      swap2\n      swap1\n      pop\n      jump\t// out\n        /* \"#utility.yul\":8461:8880   */\n    tag_71:\n        /* \"#utility.yul\":8627:8631   */\n      0x00\n        /* \"#utility.yul\":8665:8667   */\n      0x20\n        /* \"#utility.yul\":8654:8663   */\n      dup3\n        /* \"#utility.yul\":8650:8668   */\n      add\n        /* \"#utility.yul\":8642:8668   */\n      swap1\n      pop\n        /* \"#utility.yul\":8714:8723   */\n      dup2\n        /* \"#utility.yul\":8708:8712   */\n      dup2\n        /* \"#utility.yul\":8704:8724   */\n      sub\n        /* \"#utility.yul\":8700:8701   */\n      0x00\n        /* \"#utility.yul\":8689:8698   */\n      dup4\n        /* \"#utility.yul\":8685:8702   */\n      add\n        /* \"#utility.yul\":8678:8725   */\n      mstore\n        /* \"#utility.yul\":8742:8873   */\n      tag_320\n        /* \"#utility.yul\":8868:8872   */\n      dup2\n        /* \"#utility.yul\":8742:8873   */\n      tag_195\n      jump\t// in\n    tag_320:\n        /* \"#utility.yul\":8734:8873   */\n      swap1\n      pop\n        /* \"#utility.yul\":8461:8880   */\n      swap2\n      swap1\n      pop\n      jump\t// out\n        /* \"#utility.yul\":8886:9061   */\n    tag_196:\n        /* \"#utility.yul\":9026:9053   */\n      0x50726f6a656374206973206e6f74207375636365737366756c00000000000000\n        /* \"#utility.yul\":9022:9023   */\n      0x00\n        /* \"#utility.yul\":9014:9020   */\n      dup3\n        /* \"#utility.yul\":9010:9024   */\n      add\n        /* \"#utility.yul\":9003:9054   */\n      mstore\n        /* \"#utility.yul\":8886:9061   */\n      pop\n      jump\t// out\n        /* \"#utility.yul\":9067:9433   */\n    tag_197:\n        /* \"#utility.yul\":9209:9212   */\n      0x00\n        /* \"#utility.yul\":9230:9297   */\n      tag_323\n        /* \"#utility.yul\":9294:9296   */\n      0x19\n        /* \"#utility.yul\":9289:9292   */\n      dup4\n        /* \"#utility.yul\":9230:9297   */\n      tag_170\n      jump\t// in\n    tag_323:\n        /* \"#utility.yul\":9223:9297   */\n      swap2\n      pop\n        /* \"#utility.yul\":9306:9399   */\n      tag_324\n        /* \"#utility.yul\":9395:9398   */\n      dup3\n        /* \"#utility.yul\":9306:9399   */\n      tag_196\n      jump\t// in\n    tag_324:\n        /* \"#utility.yul\":9424:9426   */\n      0x20\n        /* \"#utility.yul\":9419:9422   */\n      dup3\n        /* \"#utility.yul\":9415:9427   */\n      add\n        /* \"#utility.yul\":9408:9427   */\n      swap1\n      pop\n        /* \"#utility.yul\":9067:9433   */\n      swap2\n      swap1\n      pop\n      jump\t// out\n        /* \"#utility.yul\":9439:9858   */\n    tag_80:\n        /* \"#utility.yul\":9605:9609   */\n      0x00\n        /* \"#utility.yul\":9643:9645   */\n      0x20\n        /* \"#utility.yul\":9632:9641   */\n      dup3\n        /* \"#utility.yul\":9628:9646   */\n      add\n        /* \"#utility.yul\":9620:9646   */\n      swap1\n      pop\n        /* \"#utility.yul\":9692:9701   */\n      dup2\n        /* \"#utility.yul\":9686:9690   */\n      dup2\n        /* \"#utility.yul\":9682:9702   */\n      sub\n        /* \"#utility.yul\":9678:9679   */\n      0x00\n        /* \"#utility.yul\":9667:9676   */\n      dup4\n        /* \"#utility.yul\":9663:9680   */\n      add\n        /* \"#utility.yul\":9656:9703   */\n      mstore\n        /* \"#utility.yul\":9720:9851   */\n      tag_326\n        /* \"#utility.yul\":9846:9850   */\n      dup2\n        /* \"#utility.yul\":9720:9851   */\n      tag_197\n      jump\t// in\n    tag_326:\n        /* \"#utility.yul\":9712:9851   */\n      swap1\n      pop\n        /* \"#utility.yul\":9439:9858   */\n      swap2\n      swap1\n      pop\n      jump\t// out\n        /* \"#utility.yul\":9864:10036   */\n    tag_198:\n        /* \"#utility.yul\":10004:10028   */\n      0x50726f6a656374206973206e6f74206f6e676f696e6700000000000000000000\n        /* \"#utility.yul\":10000:10001   */\n      0x00\n        /* \"#utility.yul\":9992:9998   */\n      dup3\n        /* \"#utility.yul\":9988:10002   */\n      add\n        /* \"#utility.yul\":9981:10029   */\n      mstore\n        /* \"#utility.yul\":9864:10036   */\n      pop\n      jump\t// out\n        /* \"#utility.yul\":10042:10408   */\n    tag_199:\n        /* \"#utility.yul\":10184:10187   */\n      0x00\n        /* \"#utility.yul\":10205:10272   */\n      tag_329\n        /* \"#utility.yul\":10269:10271   */\n      0x16\n        /* \"#utility.yul\":10264:10267   */\n      dup4\n        /* \"#utility.yul\":10205:10272   */\n      tag_170\n      jump\t// in\n    tag_329:\n        /* \"#utility.yul\":10198:10272   */\n      swap2\n      pop\n        /* \"#utility.yul\":10281:10374   */\n      tag_330\n        /* \"#utility.yul\":10370:10373   */\n      dup3\n        /* \"#utility.yul\":10281:10374   */\n      tag_198\n      jump\t// in\n    tag_330:\n        /* \"#utility.yul\":10399:10401   */\n      0x20\n        /* \"#utility.yul\":10394:10397   */\n      dup3\n        /* \"#utility.yul\":10390:10402   */\n      add\n        /* \"#utility.yul\":10383:10402   */\n      swap1\n      pop\n        /* \"#utility.yul\":10042:10408   */\n      swap2\n      swap1\n      pop\n      jump\t// out\n        /* \"#utility.yul\":10414:10833   */\n    tag_94:\n        /* \"#utility.yul\":10580:10584   */\n      0x00\n        /* \"#utility.yul\":10618:10620   */\n      0x20\n        /* \"#utility.yul\":10607:10616   */\n      dup3\n        /* \"#utility.yul\":10603:10621   */\n      add\n        /* \"#utility.yul\":10595:10621   */\n      swap1\n      pop\n        /* \"#utility.yul\":10667:10676   */\n      dup2\n        /* \"#utility.yul\":10661:10665   */\n      dup2\n        /* \"#utility.yul\":10657:10677   */\n      sub\n        /* \"#utility.yul\":10653:10654   */\n      0x00\n        /* \"#utility.yul\":10642:10651   */\n      dup4\n        /* \"#utility.yul\":10638:10655   */\n      add\n        /* \"#utility.yul\":10631:10678   */\n      mstore\n        /* \"#utility.yul\":10695:10826   */\n      tag_332\n        /* \"#utility.yul\":10821:10825   */\n      dup2\n        /* \"#utility.yul\":10695:10826   */\n      tag_199\n      jump\t// in\n    tag_332:\n        /* \"#utility.yul\":10687:10826   */\n      swap1\n      pop\n        /* \"#utility.yul\":10414:10833   */\n      swap2\n      swap1\n      pop\n      jump\t// out\n        /* \"#utility.yul\":10839:11010   */\n    tag_200:\n        /* \"#utility.yul\":10979:11002   */\n      0x50726f6a656374206973206e6f74206661696c65640000000000000000000000\n        /* \"#utility.yul\":10975:10976   */\n      0x00\n        /* \"#utility.yul\":10967:10973   */\n      dup3\n        /* \"#utility.yul\":10963:10977   */\n      add\n        /* \"#utility.yul\":10956:11003   */\n      mstore\n        /* \"#utility.yul\":10839:11010   */\n      pop\n      jump\t// out\n        /* \"#utility.yul\":11016:11382   */\n    tag_201:\n        /* \"#utility.yul\":11158:11161   */\n      0x00\n        /* \"#utility.yul\":11179:11246   */\n      tag_335\n        /* \"#utility.yul\":11243:11245   */\n      0x15\n        /* \"#utility.yul\":11238:11241   */\n      dup4\n        /* \"#utility.yul\":11179:11246   */\n      tag_170\n      jump\t// in\n    tag_335:\n        /* \"#utility.yul\":11172:11246   */\n      swap2\n      pop\n        /* \"#utility.yul\":11255:11348   */\n      tag_336\n        /* \"#utility.yul\":11344:11347   */\n      dup3\n        /* \"#utility.yul\":11255:11348   */\n      tag_200\n      jump\t// in\n    tag_336:\n        /* \"#utility.yul\":11373:11375   */\n      0x20\n        /* \"#utility.yul\":11368:11371   */\n      dup3\n        /* \"#utility.yul\":11364:11376   */\n      add\n        /* \"#utility.yul\":11357:11376   */\n      swap1\n      pop\n        /* \"#utility.yul\":11016:11382   */\n      swap2\n      swap1\n      pop\n      jump\t// out\n        /* \"#utility.yul\":11388:11807   */\n    tag_112:\n        /* \"#utility.yul\":11554:11558   */\n      0x00\n        /* \"#utility.yul\":11592:11594   */\n      0x20\n        /* \"#utility.yul\":11581:11590   */\n      dup3\n        /* \"#utility.yul\":11577:11595   */\n      add\n        /* \"#utility.yul\":11569:11595   */\n      swap1\n      pop\n        /* \"#utility.yul\":11641:11650   */\n      dup2\n        /* \"#utility.yul\":11635:11639   */\n      dup2\n        /* \"#utility.yul\":11631:11651   */\n      sub\n        /* \"#utility.yul\":11627:11628   */\n      0x00\n        /* \"#utility.yul\":11616:11625   */\n      dup4\n        /* \"#utility.yul\":11612:11629   */\n      add\n        /* \"#utility.yul\":11605:11652   */\n      mstore\n        /* \"#utility.yul\":11669:11800   */\n      tag_338\n        /* \"#utility.yul\":11795:11799   */\n      dup2\n        /* \"#utility.yul\":11669:11800   */\n      tag_201\n      jump\t// in\n    tag_338:\n        /* \"#utility.yul\":11661:11800   */\n      swap1\n      pop\n        /* \"#utility.yul\":11388:11807   */\n      swap2\n      swap1\n      pop\n      jump\t// out\n        /* \"#utility.yul\":11813:11993   */\n    tag_202:\n        /* \"#utility.yul\":11861:11938   */\n      0x4e487b7100000000000000000000000000000000000000000000000000000000\n        /* \"#utility.yul\":11858:11859   */\n      0x00\n        /* \"#utility.yul\":11851:11939   */\n      mstore\n        /* \"#utility.yul\":11958:11962   */\n      0x11\n        /* \"#utility.yul\":11955:11956   */\n      0x04\n        /* \"#utility.yul\":11948:11963   */\n      mstore\n        /* \"#utility.yul\":11982:11986   */\n      0x24\n        /* \"#utility.yul\":11979:11980   */\n      0x00\n        /* \"#utility.yul\":11972:11987   */\n      revert\n        /* \"#utility.yul\":11999:12193   */\n    tag_117:\n        /* \"#utility.yul\":12039:12043   */\n      0x00\n        /* \"#utility.yul\":12059:12079   */\n      tag_341\n        /* \"#utility.yul\":12077:12078   */\n      dup3\n        /* \"#utility.yul\":12059:12079   */\n      tag_167\n      jump\t// in\n    tag_341:\n        /* \"#utility.yul\":12054:12079   */\n      swap2\n      pop\n        /* \"#utility.yul\":12093:12113   */\n      tag_342\n        /* \"#utility.yul\":12111:12112   */\n      dup4\n        /* \"#utility.yul\":12093:12113   */\n      tag_167\n      jump\t// in\n    tag_342:\n        /* \"#utility.yul\":12088:12113   */\n      swap3\n      pop\n        /* \"#utility.yul\":12137:12138   */\n      dup3\n        /* \"#utility.yul\":12134:12135   */\n      dup3\n        /* \"#utility.yul\":12130:12139   */\n      sub\n        /* \"#utility.yul\":12122:12139   */\n      swap1\n      pop\n        /* \"#utility.yul\":12161:12162   */\n      dup2\n        /* \"#utility.yul\":12155:12159   */\n      dup2\n        /* \"#utility.yul\":12152:12163   */\n      gt\n        /* \"#utility.yul\":12149:12186   */\n      iszero\n      tag_343\n      jumpi\n        /* \"#utility.yul\":12166:12184   */\n      tag_344\n      tag_202\n      jump\t// in\n    tag_344:\n        /* \"#utility.yul\":12149:12186   */\n    tag_343:\n        /* \"#utility.yul\":11999:12193   */\n      swap3\n      swap2\n      pop\n      pop\n      jump\t// out\n        /* \"#utility.yul\":12199:12379   */\n    tag_120:\n        /* \"#utility.yul\":12247:12324   */\n      0x4e487b7100000000000000000000000000000000000000000000000000000000\n        /* \"#utility.yul\":12244:12245   */\n      0x00\n        /* \"#utility.yul\":12237:12325   */\n      mstore\n        /* \"#utility.yul\":12344:12348   */\n      0x32\n        /* \"#utility.yul\":12341:12342   */\n      0x04\n        /* \"#utility.yul\":12334:12349   */\n      mstore\n        /* \"#utility.yul\":12368:12372   */\n      0x24\n        /* \"#utility.yul\":12365:12366   */\n      0x00\n        /* \"#utility.yul\":12358:12373   */\n      revert\n        /* \"#utility.yul\":12385:12576   */\n    tag_127:\n        /* \"#utility.yul\":12425:12428   */\n      0x00\n        /* \"#utility.yul\":12444:12464   */\n      tag_347\n        /* \"#utility.yul\":12462:12463   */\n      dup3\n        /* \"#utility.yul\":12444:12464   */\n      tag_167\n      jump\t// in\n    tag_347:\n        /* \"#utility.yul\":12439:12464   */\n      swap2\n      pop\n        /* \"#utility.yul\":12478:12498   */\n      tag_348\n        /* \"#utility.yul\":12496:12497   */\n      dup4\n        /* \"#utility.yul\":12478:12498   */\n      tag_167\n      jump\t// in\n    tag_348:\n        /* \"#utility.yul\":12473:12498   */\n      swap3\n      pop\n        /* \"#utility.yul\":12521:12522   */\n      dup3\n        /* \"#utility.yul\":12518:12519   */\n      dup3\n        /* \"#utility.yul\":12514:12523   */\n      add\n        /* \"#utility.yul\":12507:12523   */\n      swap1\n      pop\n        /* \"#utility.yul\":12542:12545   */\n      dup1\n        /* \"#utility.yul\":12539:12540   */\n      dup3\n        /* \"#utility.yul\":12536:12546   */\n      gt\n        /* \"#utility.yul\":12533:12569   */\n      iszero\n      tag_349\n      jumpi\n        /* \"#utility.yul\":12549:12567   */\n      tag_350\n      tag_202\n      jump\t// in\n    tag_350:\n        /* \"#utility.yul\":12533:12569   */\n    tag_349:\n        /* \"#utility.yul\":12385:12576   */\n      swap3\n      swap2\n      pop\n      pop\n      jump\t// out\n        /* \"#utility.yul\":12582:12753   */\n    tag_129:\n        /* \"#utility.yul\":12621:12624   */\n      0x00\n        /* \"#utility.yul\":12644:12668   */\n      tag_352\n        /* \"#utility.yul\":12662:12667   */\n      dup3\n        /* \"#utility.yul\":12644:12668   */\n      tag_167\n      jump\t// in\n    tag_352:\n        /* \"#utility.yul\":12635:12668   */\n      swap2\n      pop\n        /* \"#utility.yul\":12690:12694   */\n      0x00\n        /* \"#utility.yul\":12683:12688   */\n      dup3\n        /* \"#utility.yul\":12680:12695   */\n      sub\n        /* \"#utility.yul\":12677:12718   */\n      tag_353\n      jumpi\n        /* \"#utility.yul\":12698:12716   */\n      tag_354\n      tag_202\n      jump\t// in\n    tag_354:\n        /* \"#utility.yul\":12677:12718   */\n    tag_353:\n        /* \"#utility.yul\":12745:12746   */\n      0x01\n        /* \"#utility.yul\":12738:12743   */\n      dup3\n        /* \"#utility.yul\":12734:12747   */\n      sub\n        /* \"#utility.yul\":12727:12747   */\n      swap1\n      pop\n        /* \"#utility.yul\":12582:12753   */\n      swap2\n      swap1\n      pop\n      jump\t// out\n        /* \"#utility.yul\":12759:12927   */\n    tag_203:\n        /* \"#utility.yul\":12899:12919   */\n      0x6e6f2066756e647320746f20726566756e640000000000000000000000000000\n        /* \"#utility.yul\":12895:12896   */\n      0x00\n        /* \"#utility.yul\":12887:12893   */\n      dup3\n        /* \"#utility.yul\":12883:12897   */\n      add\n        /* \"#utility.yul\":12876:12920   */\n      mstore\n        /* \"#utility.yul\":12759:12927   */\n      pop\n      jump\t// out\n        /* \"#utility.yul\":12933:13299   */\n    tag_204:\n        /* \"#utility.yul\":13075:13078   */\n      0x00\n        /* \"#utility.yul\":13096:13163   */\n      tag_357\n        /* \"#utility.yul\":13160:13162   */\n      0x12\n        /* \"#utility.yul\":13155:13158   */\n      dup4\n        /* \"#utility.yul\":13096:13163   */\n      tag_170\n      jump\t// in\n    tag_357:\n        /* \"#utility.yul\":13089:13163   */\n      swap2\n      pop\n        /* \"#utility.yul\":13172:13265   */\n      tag_358\n        /* \"#utility.yul\":13261:13264   */\n      dup3\n        /* \"#utility.yul\":13172:13265   */\n      tag_203\n      jump\t// in\n    tag_358:\n        /* \"#utility.yul\":13290:13292   */\n      0x20\n        /* \"#utility.yul\":13285:13288   */\n      dup3\n        /* \"#utility.yul\":13281:13293   */\n      add\n        /* \"#utility.yul\":13274:13293   */\n      swap1\n      pop\n        /* \"#utility.yul\":12933:13299   */\n      swap2\n      swap1\n      pop\n      jump\t// out\n        /* \"#utility.yul\":13305:13724   */\n    tag_132:\n        /* \"#utility.yul\":13471:13475   */\n      0x00\n        /* \"#utility.yul\":13509:13511   */\n      0x20\n        /* \"#utility.yul\":13498:13507   */\n      dup3\n        /* \"#utility.yul\":13494:13512   */\n      add\n        /* \"#utility.yul\":13486:13512   */\n      swap1\n      pop\n        /* \"#utility.yul\":13558:13567   */\n      dup2\n        /* \"#utility.yul\":13552:13556   */\n      dup2\n        /* \"#utility.yul\":13548:13568   */\n      sub\n        /* \"#utility.yul\":13544:13545   */\n      0x00\n        /* \"#utility.yul\":13533:13542   */\n      dup4\n        /* \"#utility.yul\":13529:13546   */\n      add\n        /* \"#utility.yul\":13522:13569   */\n      mstore\n        /* \"#utility.yul\":13586:13717   */\n      tag_360\n        /* \"#utility.yul\":13712:13716   */\n      dup2\n        /* \"#utility.yul\":13586:13717   */\n      tag_204\n      jump\t// in\n    tag_360:\n        /* \"#utility.yul\":13578:13717   */\n      swap1\n      pop\n        /* \"#utility.yul\":13305:13724   */\n      swap2\n      swap1\n      pop\n      jump\t// out\n        /* \"#utility.yul\":13730:13910   */\n    tag_205:\n        /* \"#utility.yul\":13778:13855   */\n      0x4e487b7100000000000000000000000000000000000000000000000000000000\n        /* \"#utility.yul\":13775:13776   */\n      0x00\n        /* \"#utility.yul\":13768:13856   */\n      mstore\n        /* \"#utility.yul\":13875:13879   */\n      0x22\n        /* \"#utility.yul\":13872:13873   */\n      0x04\n        /* \"#utility.yul\":13865:13880   */\n      mstore\n        /* \"#utility.yul\":13899:13903   */\n      0x24\n        /* \"#utility.yul\":13896:13897   */\n      0x00\n        /* \"#utility.yul\":13889:13904   */\n      revert\n        /* \"#utility.yul\":13916:14236   */\n    tag_137:\n        /* \"#utility.yul\":13960:13966   */\n      0x00\n        /* \"#utility.yul\":13997:13998   */\n      0x02\n        /* \"#utility.yul\":13991:13995   */\n      dup3\n        /* \"#utility.yul\":13987:13999   */\n      div\n        /* \"#utility.yul\":13977:13999   */\n      swap1\n      pop\n        /* \"#utility.yul\":14044:14045   */\n      0x01\n        /* \"#utility.yul\":14038:14042   */\n      dup3\n        /* \"#utility.yul\":14034:14046   */\n      and\n        /* \"#utility.yul\":14065:14083   */\n      dup1\n        /* \"#utility.yul\":14055:14136   */\n      tag_363\n      jumpi\n        /* \"#utility.yul\":14121:14125   */\n      0x7f\n        /* \"#utility.yul\":14113:14119   */\n      dup3\n        /* \"#utility.yul\":14109:14126   */\n      and\n        /* \"#utility.yul\":14099:14126   */\n      swap2\n      pop\n        /* \"#utility.yul\":14055:14136   */\n    tag_363:\n        /* \"#utility.yul\":14183:14185   */\n      0x20\n        /* \"#utility.yul\":14175:14181   */\n      dup3\n        /* \"#utility.yul\":14172:14186   */\n      lt\n        /* \"#utility.yul\":14152:14170   */\n      dup2\n        /* \"#utility.yul\":14149:14187   */\n      sub\n        /* \"#utility.yul\":14146:14230   */\n      tag_364\n      jumpi\n        /* \"#utility.yul\":14202:14220   */\n      tag_365\n      tag_205\n      jump\t// in\n    tag_365:\n        /* \"#utility.yul\":14146:14230   */\n    tag_364:\n        /* \"#utility.yul\":13967:14236   */\n      pop\n        /* \"#utility.yul\":13916:14236   */\n      swap2\n      swap1\n      pop\n      jump\t// out\n        /* \"#utility.yul\":14242:14383   */\n    tag_206:\n        /* \"#utility.yul\":14291:14295   */\n      0x00\n        /* \"#utility.yul\":14314:14317   */\n      dup2\n        /* \"#utility.yul\":14306:14317   */\n      swap1\n      pop\n        /* \"#utility.yul\":14337:14340   */\n      dup2\n        /* \"#utility.yul\":14334:14335   */\n      0x00\n        /* \"#utility.yul\":14327:14341   */\n      mstore\n        /* \"#utility.yul\":14371:14375   */\n      0x20\n        /* \"#utility.yul\":14368:14369   */\n      0x00\n        /* \"#utility.yul\":14358:14376   */\n      keccak256\n        /* \"#utility.yul\":14350:14376   */\n      swap1\n      pop\n        /* \"#utility.yul\":14242:14383   */\n      swap2\n      swap1\n      pop\n      jump\t// out\n        /* \"#utility.yul\":14389:14482   */\n    tag_207:\n        /* \"#utility.yul\":14426:14432   */\n      0x00\n        /* \"#utility.yul\":14473:14475   */\n      0x20\n        /* \"#utility.yul\":14468:14470   */\n      0x1f\n        /* \"#utility.yul\":14461:14466   */\n      dup4\n        /* \"#utility.yul\":14457:14471   */\n      add\n        /* \"#utility.yul\":14453:14476   */\n      div\n        /* \"#utility.yul\":14443:14476   */\n      swap1\n      pop\n        /* \"#utility.yul\":14389:14482   */\n      swap2\n      swap1\n      pop\n      jump\t// out\n        /* \"#utility.yul\":14488:14595   */\n    tag_208:\n        /* \"#utility.yul\":14532:14540   */\n      0x00\n        /* \"#utility.yul\":14582:14587   */\n      dup3\n        /* \"#utility.yul\":14576:14580   */\n      dup3\n        /* \"#utility.yul\":14572:14588   */\n      shl\n        /* \"#utility.yul\":14551:14588   */\n      swap1\n      pop\n        /* \"#utility.yul\":14488:14595   */\n      swap3\n      swap2\n      pop\n      pop\n      jump\t// out\n        /* \"#utility.yul\":14601:14994   */\n    tag_209:\n        /* \"#utility.yul\":14670:14676   */\n      0x00\n        /* \"#utility.yul\":14720:14721   */\n      0x08\n        /* \"#utility.yul\":14708:14718   */\n      dup4\n        /* \"#utility.yul\":14704:14722   */\n      mul\n        /* \"#utility.yul\":14743:14840   */\n      tag_370\n        /* \"#utility.yul\":14773:14839   */\n      0xffffffffffffffffffffffffffffffffffffffffffffffffffffffffffffffff\n        /* \"#utility.yul\":14762:14771   */\n      dup3\n        /* \"#utility.yul\":14743:14840   */\n      tag_208\n      jump\t// in\n    tag_370:\n        /* \"#utility.yul\":14861:14900   */\n      tag_371\n        /* \"#utility.yul\":14891:14899   */\n      dup7\n        /* \"#utility.yul\":14880:14889   */\n      dup4\n        /* \"#utility.yul\":14861:14900   */\n      tag_208\n      jump\t// in\n    tag_371:\n        /* \"#utility.yul\":14849:14900   */\n      swap6\n      pop\n        /* \"#utility.yul\":14933:14937   */\n      dup1\n        /* \"#utility.yul\":14929:14938   */\n      not\n        /* \"#utility.yul\":14922:14927   */\n      dup5\n        /* \"#utility.yul\":14918:14939   */\n      and\n        /* \"#utility.yul\":14909:14939   */\n      swap4\n      pop\n        /* \"#utility.yul\":14982:14986   */\n      dup1\n        /* \"#utility.yul\":14972:14980   */\n      dup7\n        /* \"#utility.yul\":14968:14987   */\n      and\n        /* \"#utility.yul\":14961:14966   */\n      dup5\n        /* \"#utility.yul\":14958:14988   */\n      or\n        /* \"#utility.yul\":14948:14988   */\n      swap3\n      pop\n        /* \"#utility.yul\":14677:14994   */\n      pop\n      pop\n        /* \"#utility.yul\":14601:14994   */\n      swap4\n      swap3\n      pop\n      pop\n      pop\n      jump\t// out\n        /* \"#utility.yul\":15000:15060   */\n    tag_210:\n        /* \"#utility.yul\":15028:15031   */\n      0x00\n        /* \"#utility.yul\":15049:15054   */\n      dup2\n        /* \"#utility.yul\":15042:15054   */\n      swap1\n      pop\n        /* \"#utility.yul\":15000:15060   */\n      swap2\n      swap1\n      pop\n      jump\t// out\n        /* \"#utility.yul\":15066:15208   */\n    tag_211:\n        /* \"#utility.yul\":15116:15125   */\n      0x00\n        /* \"#utility.yul\":15149:15202   */\n      tag_374\n        /* \"#utility.yul\":15167:15201   */\n      tag_375\n        /* \"#utility.yul\":15176:15200   */\n      tag_376\n        /* \"#utility.yul\":15194:15199   */\n      dup5\n        /* \"#utility.yul\":15176:15200   */\n      tag_167\n      jump\t// in\n    tag_376:\n        /* \"#utility.yul\":15167:15201   */\n      tag_210\n      jump\t// in\n    tag_375:\n        /* \"#utility.yul\":15149:15202   */\n      tag_167\n      jump\t// in\n    tag_374:\n        /* \"#utility.yul\":15136:15202   */\n      swap1\n      pop\n        /* \"#utility.yul\":15066:15208   */\n      swap2\n      swap1\n      pop\n      jump\t// out\n        /* \"#utility.yul\":15214:15289   */\n    tag_212:\n        /* \"#utility.yul\":15257:15260   */\n      0x00\n        /* \"#utility.yul\":15278:15283   */\n      dup2\n        /* \"#utility.yul\":15271:15283   */\n      swap1\n      pop\n        /* \"#utility.yul\":15214:15289   */\n      swap2\n      swap1\n      pop\n      jump\t// out\n        /* \"#utility.yul\":15295:15564   */\n    tag_213:\n        /* \"#utility.yul\":15405:15444   */\n      tag_379\n        /* \"#utility.yul\":15436:15443   */\n      dup4\n        /* \"#utility.yul\":15405:15444   */\n      tag_211\n      jump\t// in\n    tag_379:\n        /* \"#utility.yul\":15466:15557   */\n      tag_380\n        /* \"#utility.yul\":15515:15556   */\n      tag_381\n        /* \"#utility.yul\":15539:15555   */\n      dup3\n        /* \"#utility.yul\":15515:15556   */\n      tag_212\n      jump\t// in\n    tag_381:\n        /* \"#utility.yul\":15507:15513   */\n      dup5\n        /* \"#utility.yul\":15500:15504   */\n      dup5\n        /* \"#utility.yul\":15494:15505   */\n      sload\n        /* \"#utility.yul\":15466:15557   */\n      tag_209\n      jump\t// in\n    tag_380:\n        /* \"#utility.yul\":15460:15464   */\n      dup3\n        /* \"#utility.yul\":15453:15558   */\n      sstore\n        /* \"#utility.yul\":15371:15564   */\n      pop\n        /* \"#utility.yul\":15295:15564   */\n      pop\n      pop\n      pop\n      jump\t// out\n        /* \"#utility.yul\":15570:15643   */\n    tag_214:\n        /* \"#utility.yul\":15615:15618   */\n      0x00\n        /* \"#utility.yul\":15570:15643   */\n      swap1\n      jump\t// out\n        /* \"#utility.yul\":15649:15838   */\n    tag_215:\n        /* \"#utility.yul\":15726:15758   */\n      tag_384\n      tag_214\n      jump\t// in\n    tag_384:\n        /* \"#utility.yul\":15767:15832   */\n      tag_385\n        /* \"#utility.yul\":15825:15831   */\n      dup2\n        /* \"#utility.yul\":15817:15823   */\n      dup5\n        /* \"#utility.yul\":15811:15815   */\n      dup5\n        /* \"#utility.yul\":15767:15832   */\n      tag_213\n      jump\t// in\n    tag_385:\n        /* \"#utility.yul\":15702:15838   */\n      pop\n        /* \"#utility.yul\":15649:15838   */\n      pop\n      pop\n      jump\t// out\n        /* \"#utility.yul\":15844:16030   */\n    tag_216:\n        /* \"#utility.yul\":15904:16024   */\n    tag_387:\n        /* \"#utility.yul\":15921:15924   */\n      dup2\n        /* \"#utility.yul\":15914:15919   */\n      dup2\n        /* \"#utility.yul\":15911:15925   */\n      lt\n        /* \"#utility.yul\":15904:16024   */\n      iszero\n      tag_389\n      jumpi\n        /* \"#utility.yul\":15975:16014   */\n      tag_390\n        /* \"#utility.yul\":16012:16013   */\n      0x00\n        /* \"#utility.yul\":16005:16010   */\n      dup3\n        /* \"#utility.yul\":15975:16014   */\n      tag_215\n      jump\t// in\n    tag_390:\n        /* \"#utility.yul\":15948:15949   */\n      0x01\n        /* \"#utility.yul\":15941:15946   */\n      dup2\n        /* \"#utility.yul\":15937:15950   */\n      add\n        /* \"#utility.yul\":15928:15950   */\n      swap1\n      pop\n        /* \"#utility.yul\":15904:16024   */\n      jump(tag_387)\n    tag_389:\n        /* \"#utility.yul\":15844:16030   */\n      pop\n      pop\n      jump\t// out\n        /* \"#utility.yul\":16036:16579   */\n    tag_217:\n        /* \"#utility.yul\":16137:16139   */\n      0x1f\n        /* \"#utility.yul\":16132:16135   */\n      dup3\n        /* \"#utility.yul\":16129:16140   */\n      gt\n        /* \"#utility.yul\":16126:16572   */\n      iszero\n      tag_392\n      jumpi\n        /* \"#utility.yul\":16171:16209   */\n      tag_393\n        /* \"#utility.yul\":16203:16208   */\n      dup2\n        /* \"#utility.yul\":16171:16209   */\n      tag_206\n      jump\t// in\n    tag_393:\n        /* \"#utility.yul\":16255:16284   */\n      tag_394\n        /* \"#utility.yul\":16273:16283   */\n      dup5\n        /* \"#utility.yul\":16255:16284   */\n      tag_207\n      jump\t// in\n    tag_394:\n        /* \"#utility.yul\":16245:16253   */\n      dup2\n        /* \"#utility.yul\":16241:16285   */\n      add\n        /* \"#utility.yul\":16438:16440   */\n      0x20\n        /* \"#utility.yul\":16426:16436   */\n      dup6\n        /* \"#utility.yul\":16423:16441   */\n      lt\n        /* \"#utility.yul\":16420:16469   */\n      iszero\n      tag_395\n      jumpi\n        /* \"#utility.yul\":16459:16467   */\n      dup2\n        /* \"#utility.yul\":16444:16467   */\n      swap1\n      pop\n        /* \"#utility.yul\":16420:16469   */\n    tag_395:\n        /* \"#utility.yul\":16482:16562   */\n      tag_396\n        /* \"#utility.yul\":16538:16560   */\n      tag_397\n        /* \"#utility.yul\":16556:16559   */\n      dup6\n        /* \"#utility.yul\":16538:16560   */\n      tag_207\n      jump\t// in\n    tag_397:\n        /* \"#utility.yul\":16528:16536   */\n      dup4\n        /* \"#utility.yul\":16524:16561   */\n      add\n        /* \"#utility.yul\":16511:16522   */\n      dup3\n        /* \"#utility.yul\":16482:16562   */\n      tag_216\n      jump\t// in\n    tag_396:\n        /* \"#utility.yul\":16141:16572   */\n      pop\n      pop\n        /* \"#utility.yul\":16126:16572   */\n    tag_392:\n        /* \"#utility.yul\":16036:16579   */\n      pop\n      pop\n      pop\n      jump\t// out\n        /* \"#utility.yul\":16585:16702   */\n    tag_218:\n        /* \"#utility.yul\":16639:16647   */\n      0x00\n        /* \"#utility.yul\":16689:16694   */\n      dup3\n        /* \"#utility.yul\":16683:16687   */\n      dup3\n        /* \"#utility.yul\":16679:16695   */\n      shr\n        /* \"#utility.yul\":16658:16695   */\n      swap1\n      pop\n        /* \"#utility.yul\":16585:16702   */\n      swap3\n      swap2\n      pop\n      pop\n      jump\t// out\n        /* \"#utility.yul\":16708:16877   */\n    tag_219:\n        /* \"#utility.yul\":16752:16758   */\n      0x00\n        /* \"#utility.yul\":16785:16836   */\n      tag_400\n        /* \"#utility.yul\":16833:16834   */\n      0x00\n        /* \"#utility.yul\":16829:16835   */\n      not\n        /* \"#utility.yul\":16821:16826   */\n      dup5\n        /* \"#utility.yul\":16818:16819   */\n      0x08\n        /* \"#utility.yul\":16814:16827   */\n      mul\n        /* \"#utility.yul\":16785:16836   */\n      tag_218\n      jump\t// in\n    tag_400:\n        /* \"#utility.yul\":16781:16837   */\n      not\n        /* \"#utility.yul\":16866:16870   */\n      dup1\n        /* \"#utility.yul\":16860:16864   */\n      dup4\n        /* \"#utility.yul\":16856:16871   */\n      and\n        /* \"#utility.yul\":16846:16871   */\n      swap2\n      pop\n        /* \"#utility.yul\":16759:16877   */\n      pop\n        /* \"#utility.yul\":16708:16877   */\n      swap3\n      swap2\n      pop\n      pop\n      jump\t// out\n        /* \"#utility.yul\":16882:17177   */\n    tag_220:\n        /* \"#utility.yul\":16958:16962   */\n      0x00\n        /* \"#utility.yul\":17104:17133   */\n      tag_402\n        /* \"#utility.yul\":17129:17132   */\n      dup4\n        /* \"#utility.yul\":17123:17127   */\n      dup4\n        /* \"#utility.yul\":17104:17133   */\n      tag_219\n      jump\t// in\n    tag_402:\n        /* \"#utility.yul\":17096:17133   */\n      swap2\n      pop\n        /* \"#utility.yul\":17166:17169   */\n      dup3\n        /* \"#utility.yul\":17163:17164   */\n      0x02\n        /* \"#utility.yul\":17159:17170   */\n      mul\n        /* \"#utility.yul\":17153:17157   */\n      dup3\n        /* \"#utility.yul\":17150:17171   */\n      or\n        /* \"#utility.yul\":17142:17171   */\n      swap1\n      pop\n        /* \"#utility.yul\":16882:17177   */\n      swap3\n      swap2\n      pop\n      pop\n      jump\t// out\n        /* \"#utility.yul\":17182:18577   */\n    tag_144:\n        /* \"#utility.yul\":17299:17336   */\n      tag_404\n        /* \"#utility.yul\":17332:17335   */\n      dup3\n        /* \"#utility.yul\":17299:17336   */\n      tag_169\n      jump\t// in\n    tag_404:\n        /* \"#utility.yul\":17401:17419   */\n      0xffffffffffffffff\n        /* \"#utility.yul\":17393:17399   */\n      dup2\n        /* \"#utility.yul\":17390:17420   */\n      gt\n        /* \"#utility.yul\":17387:17443   */\n      iszero\n      tag_405\n      jumpi\n        /* \"#utility.yul\":17423:17441   */\n      tag_406\n      tag_185\n      jump\t// in\n    tag_406:\n        /* \"#utility.yul\":17387:17443   */\n    tag_405:\n        /* \"#utility.yul\":17467:17505   */\n      tag_407\n        /* \"#utility.yul\":17499:17503   */\n      dup3\n        /* \"#utility.yul\":17493:17504   */\n      sload\n        /* \"#utility.yul\":17467:17505   */\n      tag_137\n      jump\t// in\n    tag_407:\n        /* \"#utility.yul\":17552:17619   */\n      tag_408\n        /* \"#utility.yul\":17612:17618   */\n      dup3\n        /* \"#utility.yul\":17604:17610   */\n      dup3\n        /* \"#utility.yul\":17598:17602   */\n      dup6\n        /* \"#utility.yul\":17552:17619   */\n      tag_217\n      jump\t// in\n    tag_408:\n        /* \"#utility.yul\":17646:17647   */\n      0x00\n        /* \"#utility.yul\":17670:17674   */\n      0x20\n        /* \"#utility.yul\":17657:17674   */\n      swap1\n      pop\n        /* \"#utility.yul\":17702:17704   */\n      0x1f\n        /* \"#utility.yul\":17694:17700   */\n      dup4\n        /* \"#utility.yul\":17691:17705   */\n      gt\n        /* \"#utility.yul\":17719:17720   */\n      0x01\n        /* \"#utility.yul\":17714:18332   */\n      dup2\n      eq\n      tag_410\n      jumpi\n        /* \"#utility.yul\":18376:18377   */\n      0x00\n        /* \"#utility.yul\":18393:18399   */\n      dup5\n        /* \"#utility.yul\":18390:18467   */\n      iszero\n      tag_411\n      jumpi\n        /* \"#utility.yul\":18442:18451   */\n      dup3\n        /* \"#utility.yul\":18437:18440   */\n      dup8\n        /* \"#utility.yul\":18433:18452   */\n      add\n        /* \"#utility.yul\":18427:18453   */\n      mload\n        /* \"#utility.yul\":18418:18453   */\n      swap1\n      pop\n        /* \"#utility.yul\":18390:18467   */\n    tag_411:\n        /* \"#utility.yul\":18493:18560   */\n      tag_412\n        /* \"#utility.yul\":18553:18559   */\n      dup6\n        /* \"#utility.yul\":18546:18551   */\n      dup3\n        /* \"#utility.yul\":18493:18560   */\n      tag_220\n      jump\t// in\n    tag_412:\n        /* \"#utility.yul\":18487:18491   */\n      dup7\n        /* \"#utility.yul\":18480:18561   */\n      sstore\n        /* \"#utility.yul\":18349:18571   */\n      pop\n        /* \"#utility.yul\":17684:18571   */\n      jump(tag_409)\n        /* \"#utility.yul\":17714:18332   */\n    tag_410:\n        /* \"#utility.yul\":17766:17770   */\n      0x1f\n        /* \"#utility.yul\":17762:17771   */\n      not\n        /* \"#utility.yul\":17754:17760   */\n      dup5\n        /* \"#utility.yul\":17750:17772   */\n      and\n        /* \"#utility.yul\":17800:17837   */\n      tag_413\n        /* \"#utility.yul\":17832:17836   */\n      dup7\n        /* \"#utility.yul\":17800:17837   */\n      tag_206\n      jump\t// in\n    tag_413:\n        /* \"#utility.yul\":17859:17860   */\n      0x00\n        /* \"#utility.yul\":17873:18081   */\n    tag_414:\n        /* \"#utility.yul\":17887:17894   */\n      dup3\n        /* \"#utility.yul\":17884:17885   */\n      dup2\n        /* \"#utility.yul\":17881:17895   */\n      lt\n        /* \"#utility.yul\":17873:18081   */\n      iszero\n      tag_416\n      jumpi\n        /* \"#utility.yul\":17966:17975   */\n      dup5\n        /* \"#utility.yul\":17961:17964   */\n      dup10\n        /* \"#utility.yul\":17957:17976   */\n      add\n        /* \"#utility.yul\":17951:17977   */\n      mload\n        /* \"#utility.yul\":17943:17949   */\n      dup3\n        /* \"#utility.yul\":17936:17978   */\n      sstore\n        /* \"#utility.yul\":18017:18018   */\n      0x01\n        /* \"#utility.yul\":18009:18015   */\n      dup3\n        /* \"#utility.yul\":18005:18019   */\n      add\n        /* \"#utility.yul\":17995:18019   */\n      swap2\n      pop\n        /* \"#utility.yul\":18064:18066   */\n      0x20\n        /* \"#utility.yul\":18053:18062   */\n      dup6\n        /* \"#utility.yul\":18049:18067   */\n      add\n        /* \"#utility.yul\":18036:18067   */\n      swap5\n      pop\n        /* \"#utility.yul\":17910:17914   */\n      0x20\n        /* \"#utility.yul\":17907:17908   */\n      dup2\n        /* \"#utility.yul\":17903:17915   */\n      add\n        /* \"#utility.yul\":17898:17915   */\n      swap1\n      pop\n        /* \"#utility.yul\":17873:18081   */\n      jump(tag_414)\n    tag_416:\n        /* \"#utility.yul\":18109:18115   */\n      dup7\n        /* \"#utility.yul\":18100:18107   */\n      dup4\n        /* \"#utility.yul\":18097:18116   */\n      lt\n        /* \"#utility.yul\":18094:18273   */\n      iszero\n      tag_417\n      jumpi\n        /* \"#utility.yul\":18167:18176   */\n      dup5\n        /* \"#utility.yul\":18162:18165   */\n      dup10\n        /* \"#utility.yul\":18158:18177   */\n      add\n        /* \"#utility.yul\":18152:18178   */\n      mload\n        /* \"#utility.yul\":18210:18258   */\n      tag_418\n        /* \"#utility.yul\":18252:18256   */\n      0x1f\n        /* \"#utility.yul\":18244:18250   */\n      dup10\n        /* \"#utility.yul\":18240:18257   */\n      and\n        /* \"#utility.yul\":18229:18238   */\n      dup3\n        /* \"#utility.yul\":18210:18258   */\n      tag_219\n      jump\t// in\n    tag_418:\n        /* \"#utility.yul\":18202:18208   */\n      dup4\n        /* \"#utility.yul\":18195:18259   */\n      sstore\n        /* \"#utility.yul\":18117:18273   */\n      pop\n        /* \"#utility.yul\":18094:18273   */\n    tag_417:\n        /* \"#utility.yul\":18319:18320   */\n      0x01\n        /* \"#utility.yul\":18315:18316   */\n      0x02\n        /* \"#utility.yul\":18307:18313   */\n      dup9\n        /* \"#utility.yul\":18303:18317   */\n      mul\n        /* \"#utility.yul\":18299:18321   */\n      add\n        /* \"#utility.yul\":18293:18297   */\n      dup9\n        /* \"#utility.yul\":18286:18322   */\n      sstore\n        /* \"#utility.yul\":17721:18332   */\n      pop\n      pop\n      pop\n        /* \"#utility.yul\":17684:18571   */\n    tag_409:\n      pop\n        /* \"#utility.yul\":17274:18577   */\n      pop\n      pop\n      pop\n        /* \"#utility.yul\":17182:18577   */\n      pop\n      pop\n      jump\t// out\n        /* \"#utility.yul\":18583:18756   */\n    tag_221:\n        /* \"#utility.yul\":18723:18748   */\n      0x50726f6a656374206973206e6f74206f6e676f696e672e000000000000000000\n        /* \"#utility.yul\":18719:18720   */\n      0x00\n        /* \"#utility.yul\":18711:18717   */\n      dup3\n        /* \"#utility.yul\":18707:18721   */\n      add\n        /* \"#utility.yul\":18700:18749   */\n      mstore\n        /* \"#utility.yul\":18583:18756   */\n      pop\n      jump\t// out\n        /* \"#utility.yul\":18762:19128   */\n    tag_222:\n        /* \"#utility.yul\":18904:18907   */\n      0x00\n        /* \"#utility.yul\":18925:18992   */\n      tag_421\n        /* \"#utility.yul\":18989:18991   */\n      0x17\n        /* \"#utility.yul\":18984:18987   */\n      dup4\n        /* \"#utility.yul\":18925:18992   */\n      tag_170\n      jump\t// in\n    tag_421:\n        /* \"#utility.yul\":18918:18992   */\n      swap2\n      pop\n        /* \"#utility.yul\":19001:19094   */\n      tag_422\n        /* \"#utility.yul\":19090:19093   */\n      dup3\n        /* \"#utility.yul\":19001:19094   */\n      tag_221\n      jump\t// in\n    tag_422:\n        /* \"#utility.yul\":19119:19121   */\n      0x20\n        /* \"#utility.yul\":19114:19117   */\n      dup3\n        /* \"#utility.yul\":19110:19122   */\n      add\n        /* \"#utility.yul\":19103:19122   */\n      swap1\n      pop\n        /* \"#utility.yul\":18762:19128   */\n      swap2\n      swap1\n      pop\n      jump\t// out\n        /* \"#utility.yul\":19134:19553   */\n    tag_155:\n        /* \"#utility.yul\":19300:19304   */\n      0x00\n        /* \"#utility.yul\":19338:19340   */\n      0x20\n        /* \"#utility.yul\":19327:19336   */\n      dup3\n        /* \"#utility.yul\":19323:19341   */\n      add\n        /* \"#utility.yul\":19315:19341   */\n      swap1\n      pop\n        /* \"#utility.yul\":19387:19396   */\n      dup2\n        /* \"#utility.yul\":19381:19385   */\n      dup2\n        /* \"#utility.yul\":19377:19397   */\n      sub\n        /* \"#utility.yul\":19373:19374   */\n      0x00\n        /* \"#utility.yul\":19362:19371   */\n      dup4\n        /* \"#utility.yul\":19358:19375   */\n      add\n        /* \"#utility.yul\":19351:19398   */\n      mstore\n        /* \"#utility.yul\":19415:19546   */\n      tag_424\n        /* \"#utility.yul\":19541:19545   */\n      dup2\n        /* \"#utility.yul\":19415:19546   */\n      tag_222\n      jump\t// in\n    tag_424:\n        /* \"#utility.yul\":19407:19546   */\n      swap1\n      pop\n        /* \"#utility.yul\":19134:19553   */\n      swap2\n      swap1\n      pop\n      jump\t// out\n        /* \"#utility.yul\":19559:19737   */\n    tag_223:\n        /* \"#utility.yul\":19699:19729   */\n      0x50726f6a65637420646561646c696e6520686173207061737365642e00000000\n        /* \"#utility.yul\":19695:19696   */\n      0x00\n        /* \"#utility.yul\":19687:19693   */\n      dup3\n        /* \"#utility.yul\":19683:19697   */\n      add\n        /* \"#utility.yul\":19676:19730   */\n      mstore\n        /* \"#utility.yul\":19559:19737   */\n      pop\n      jump\t// out\n        /* \"#utility.yul\":19743:20109   */\n    tag_224:\n        /* \"#utility.yul\":19885:19888   */\n      0x00\n        /* \"#utility.yul\":19906:19973   */\n      tag_427\n        /* \"#utility.yul\":19970:19972   */\n      0x1c\n        /* \"#utility.yul\":19965:19968   */\n      dup4\n        /* \"#utility.yul\":19906:19973   */\n      tag_170\n      jump\t// in\n    tag_427:\n        /* \"#utility.yul\":19899:19973   */\n      swap2\n      pop\n        /* \"#utility.yul\":19982:20075   */\n      tag_428\n        /* \"#utility.yul\":20071:20074   */\n      dup3\n        /* \"#utility.yul\":19982:20075   */\n      tag_223\n      jump\t// in\n    tag_428:\n        /* \"#utility.yul\":20100:20102   */\n      0x20\n        /* \"#utility.yul\":20095:20098   */\n      dup3\n        /* \"#utility.yul\":20091:20103   */\n      add\n        /* \"#utility.yul\":20084:20103   */\n      swap1\n      pop\n        /* \"#utility.yul\":19743:20109   */\n      swap2\n      swap1\n      pop\n      jump\t// out\n        /* \"#utility.yul\":20115:20534   */\n    tag_158:\n        /* \"#utility.yul\":20281:20285   */\n      0x00\n        /* \"#utility.yul\":20319:20321   */\n      0x20\n        /* \"#utility.yul\":20308:20317   */\n      dup3\n        /* \"#utility.yul\":20304:20322   */\n      add\n        /* \"#utility.yul\":20296:20322   */\n      swap1\n      pop\n        /* \"#utility.yul\":20368:20377   */\n      dup2\n        /* \"#utility.yul\":20362:20366   */\n      dup2\n        /* \"#utility.yul\":20358:20378   */\n      sub\n        /* \"#utility.yul\":20354:20355   */\n      0x00\n        /* \"#utility.yul\":20343:20352   */\n      dup4\n        /* \"#utility.yul\":20339:20356   */\n      add\n        /* \"#utility.yul\":20332:20379   */\n      mstore\n        /* \"#utility.yul\":20396:20527   */\n      tag_430\n        /* \"#utility.yul\":20522:20526   */\n      dup2\n        /* \"#utility.yul\":20396:20527   */\n      tag_224\n      jump\t// in\n    tag_430:\n        /* \"#utility.yul\":20388:20527   */\n      swap1\n      pop\n        /* \"#utility.yul\":20115:20534   */\n      swap2\n      swap1\n      pop\n      jump\t// out\n\n    auxdata: 0xa264697066735822122020ca5293c7bfeea649be183cc0f0f960202b9907587d2c24e5380c9f98193ef564736f6c634300081a0033\n}\n",
				"bytecode": {
					"linkReferences": {},
					"object": "6080604052348015600e575f80fd5b506116498061001c5f395ff3fe6080604052600436106100a6575f3560e01c80637284e416116100635780637284e4161461016a578063c19d93fb14610194578063e8668c52146101be578063ed88c68e146101e6578063f441b1c8146101f0578063f8626af81461021a576100a6565b806302d05d3f146100aa57806324600fc3146100d45780632636b945146100ea57806329dcb0cf146101145780633deb33e71461013e578063590e1ae314610154575b5f80fd5b3480156100b5575f80fd5b506100be610257565b6040516100cb9190610bc2565b60405180910390f35b3480156100df575f80fd5b506100e861027a565b005b3480156100f5575f80fd5b506100fe610460565b60405161010b9190610bf3565b60405180910390f35b34801561011f575f80fd5b50610128610466565b6040516101359190610bf3565b60405180910390f35b348015610149575f80fd5b5061015261046c565b005b34801561015f575f80fd5b506101686105d0565b005b348015610175575f80fd5b5061017e610837565b60405161018b9190610c7c565b60405180910390f35b34801561019f575f80fd5b506101a86108c3565b6040516101b59190610d0f565b60405180910390f35b3480156101c9575f80fd5b506101e460048036038101906101df9190610eb9565b6108d5565b005b6101ee61096c565b005b3480156101fb575f80fd5b50610204610b2f565b6040516102119190610bf3565b60405180910390f35b348015610225575f80fd5b50610240600480360381019061023b9190610f39565b610b35565b60405161024e929190610f64565b60405180910390f35b5f8054906101000a900473ffffffffffffffffffffffffffffffffffffffff1681565b5f8054906101000a900473ffffffffffffffffffffffffffffffffffffffff1673ffffffffffffffffffffffffffffffffffffffff163373ffffffffffffffffffffffffffffffffffffffff16146102d0575f80fd5b6003544211610314576040517f08c379a000000000000000000000000000000000000000000000000000000000815260040161030b90610fd5565b60405180910390fd5b6001600281111561032857610327610c9c565b5b60055f9054906101000a900460ff16600281111561034957610348610c9c565b5b14610389576040517f08c379a00000000000000000000000000000000000000000000000000000000081526004016103809061103d565b60405180910390fd5b5f4790505f8054906101000a900473ffffffffffffffffffffffffffffffffffffffff1673ffffffffffffffffffffffffffffffffffffffff166108fc8290811502906040515f60405180830381858888f193505050501580156103ef573d5f803e3d5ffd5b505f8054906101000a900473ffffffffffffffffffffffffffffffffffffffff1673ffffffffffffffffffffffffffffffffffffffff167feaff4b37086828766ad3268786972c0cd24259d4c87a80f9d3963a3c3d999b0d826040516104559190610bf3565b60405180910390a250565b60025481565b60035481565b60035442116104b0576040517f08c379a00000000000000000000000000000000000000000000000000000000081526004016104a790610fd5565b60405180910390fd5b5f60028111156104c3576104c2610c9c565b5b60055f9054906101000a900460ff1660028111156104e4576104e3610c9c565b5b14610524576040517f08c379a000000000000000000000000000000000000000000000000000000000815260040161051b906110a5565b60405180910390fd5b6002546004541061055e57600160055f6101000a81548160ff0219169083600281111561055457610553610c9c565b5b0217905550610589565b600260055f6101000a81548160ff0219169083600281111561058357610582610c9c565b5b02179055505b7f35bb0cd5f89def7829cadbfe305076fca9a4811f847e3ce1cd4e017651dda4d460055f9054906101000a900460ff166040516105c69190610d0f565b60405180910390a1565b6003544211610614576040517f08c379a000000000000000000000000000000000000000000000000000000000815260040161060b90610fd5565b60405180910390fd5b60028081111561062757610626610c9c565b5b60055f9054906101000a900460ff16600281111561064857610647610c9c565b5b14610688576040517f08c379a000000000000000000000000000000000000000000000000000000000815260040161067f9061110d565b60405180910390fd5b5f80600160068054905061069c9190611158565b90505b5f811061075f573373ffffffffffffffffffffffffffffffffffffffff16600682815481106106d1576106d061118b565b5b905f5260205f2090600202015f015f9054906101000a900473ffffffffffffffffffffffffffffffffffffffff1673ffffffffffffffffffffffffffffffffffffffff160361074c576006818154811061072e5761072d61118b565b5b905f5260205f209060020201600101548261074991906111b8565b91505b8080610757906111eb565b91505061069f565b505f81116107a2576040517f08c379a00000000000000000000000000000000000000000000000000000000081526004016107999061125c565b60405180910390fd5b3373ffffffffffffffffffffffffffffffffffffffff166108fc8290811502906040515f60405180830381858888f193505050501580156107e5573d5f803e3d5ffd5b503373ffffffffffffffffffffffffffffffffffffffff167fbada1a1bf129e41a8af5abe00997bd8a8cb1770cb0cf68314eb4b1d6c42713978260405161082c9190610bf3565b60405180910390a250565b60018054610844906112a7565b80601f0160208091040260200160405190810160405280929190818152602001828054610870906112a7565b80156108bb5780601f10610892576101008083540402835291602001916108bb565b820191905f5260205f20905b81548152906001019060200180831161089e57829003601f168201915b505050505081565b60055f9054906101000a900460ff1681565b835f806101000a81548173ffffffffffffffffffffffffffffffffffffffff021916908373ffffffffffffffffffffffffffffffffffffffff16021790555082600190816109239190611474565b5081600281905550804261093791906111b8565b6003819055505f60055f6101000a81548160ff0219169083600281111561096157610960610c9c565b5b021790555050505050565b5f600281111561097f5761097e610c9c565b5b60055f9054906101000a900460ff1660028111156109a05761099f610c9c565b5b146109e0576040517f08c379a00000000000000000000000000000000000000000000000000000000081526004016109d79061158d565b60405180910390fd5b6003544210610a24576040517f08c379a0000000000000000000000000000000000000000000000000000000008152600401610a1b906115f5565b60405180910390fd5b600660405180604001604052803373ffffffffffffffffffffffffffffffffffffffff16815260200134815250908060018154018082558091505060019003905f5260205f2090600202015f909190919091505f820151815f015f6101000a81548173ffffffffffffffffffffffffffffffffffffffff021916908373ffffffffffffffffffffffffffffffffffffffff1602179055506020820151816001015550503460045f828254610ad891906111b8565b925050819055503373ffffffffffffffffffffffffffffffffffffffff167f264f630d9efa0d07053a31163641d9fcc0adafc9d9e76f1c37c2ce3a558d2c5234604051610b259190610bf3565b60405180910390a2565b60045481565b60068181548110610b44575f80fd5b905f5260205f2090600202015f91509050805f015f9054906101000a900473ffffffffffffffffffffffffffffffffffffffff16908060010154905082565b5f73ffffffffffffffffffffffffffffffffffffffff82169050919050565b5f610bac82610b83565b9050919050565b610bbc81610ba2565b82525050565b5f602082019050610bd55f830184610bb3565b92915050565b5f819050919050565b610bed81610bdb565b82525050565b5f602082019050610c065f830184610be4565b92915050565b5f81519050919050565b5f82825260208201905092915050565b8281835e5f83830152505050565b5f601f19601f8301169050919050565b5f610c4e82610c0c565b610c588185610c16565b9350610c68818560208601610c26565b610c7181610c34565b840191505092915050565b5f6020820190508181035f830152610c948184610c44565b905092915050565b7f4e487b71000000000000000000000000000000000000000000000000000000005f52602160045260245ffd5b60038110610cda57610cd9610c9c565b5b50565b5f819050610cea82610cc9565b919050565b5f610cf982610cdd565b9050919050565b610d0981610cef565b82525050565b5f602082019050610d225f830184610d00565b92915050565b5f604051905090565b5f80fd5b5f80fd5b610d4281610ba2565b8114610d4c575f80fd5b50565b5f81359050610d5d81610d39565b92915050565b5f80fd5b5f80fd5b7f4e487b71000000000000000000000000000000000000000000000000000000005f52604160045260245ffd5b610da182610c34565b810181811067ffffffffffffffff82111715610dc057610dbf610d6b565b5b80604052505050565b5f610dd2610d28565b9050610dde8282610d98565b919050565b5f67ffffffffffffffff821115610dfd57610dfc610d6b565b5b610e0682610c34565b9050602081019050919050565b828183375f83830152505050565b5f610e33610e2e84610de3565b610dc9565b905082815260208101848484011115610e4f57610e4e610d67565b5b610e5a848285610e13565b509392505050565b5f82601f830112610e7657610e75610d63565b5b8135610e86848260208601610e21565b91505092915050565b610e9881610bdb565b8114610ea2575f80fd5b50565b5f81359050610eb381610e8f565b92915050565b5f805f8060808587031215610ed157610ed0610d31565b5b5f610ede87828801610d4f565b945050602085013567ffffffffffffffff811115610eff57610efe610d35565b5b610f0b87828801610e62565b9350506040610f1c87828801610ea5565b9250506060610f2d87828801610ea5565b91505092959194509250565b5f60208284031215610f4e57610f4d610d31565b5b5f610f5b84828501610ea5565b91505092915050565b5f604082019050610f775f830185610bb3565b610f846020830184610be4565b9392505050565b7f6f6e6c79206166746572206465616c696e6521000000000000000000000000005f82015250565b5f610fbf601383610c16565b9150610fca82610f8b565b602082019050919050565b5f6020820190508181035f830152610fec81610fb3565b9050919050565b7f50726f6a656374206973206e6f74207375636365737366756c000000000000005f82015250565b5f611027601983610c16565b915061103282610ff3565b602082019050919050565b5f6020820190508181035f8301526110548161101b565b9050919050565b7f50726f6a656374206973206e6f74206f6e676f696e67000000000000000000005f82015250565b5f61108f601683610c16565b915061109a8261105b565b602082019050919050565b5f6020820190508181035f8301526110bc81611083565b9050919050565b7f50726f6a656374206973206e6f74206661696c656400000000000000000000005f82015250565b5f6110f7601583610c16565b9150611102826110c3565b602082019050919050565b5f6020820190508181035f830152611124816110eb565b9050919050565b7f4e487b71000000000000000000000000000000000000000000000000000000005f52601160045260245ffd5b5f61116282610bdb565b915061116d83610bdb565b92508282039050818111156111855761118461112b565b5b92915050565b7f4e487b71000000000000000000000000000000000000000000000000000000005f52603260045260245ffd5b5f6111c282610bdb565b91506111cd83610bdb565b92508282019050808211156111e5576111e461112b565b5b92915050565b5f6111f582610bdb565b91505f82036112075761120661112b565b5b600182039050919050565b7f6e6f2066756e647320746f20726566756e6400000000000000000000000000005f82015250565b5f611246601283610c16565b915061125182611212565b602082019050919050565b5f6020820190508181035f8301526112738161123a565b9050919050565b7f4e487b71000000000000000000000000000000000000000000000000000000005f52602260045260245ffd5b5f60028204905060018216806112be57607f821691505b6020821081036112d1576112d061127a565b5b50919050565b5f819050815f5260205f209050919050565b5f6020601f8301049050919050565b5f82821b905092915050565b5f600883026113337fffffffffffffffffffffffffffffffffffffffffffffffffffffffffffffffff826112f8565b61133d86836112f8565b95508019841693508086168417925050509392505050565b5f819050919050565b5f61137861137361136e84610bdb565b611355565b610bdb565b9050919050565b5f819050919050565b6113918361135e565b6113a561139d8261137f565b848454611304565b825550505050565b5f90565b6113b96113ad565b6113c4818484611388565b505050565b5b818110156113e7576113dc5f826113b1565b6001810190506113ca565b5050565b601f82111561142c576113fd816112d7565b611406846112e9565b81016020851015611415578190505b611429611421856112e9565b8301826113c9565b50505b505050565b5f82821c905092915050565b5f61144c5f1984600802611431565b1980831691505092915050565b5f611464838361143d565b9150826002028217905092915050565b61147d82610c0c565b67ffffffffffffffff81111561149657611495610d6b565b5b6114a082546112a7565b6114ab8282856113eb565b5f60209050601f8311600181146114dc575f84156114ca578287015190505b6114d48582611459565b86555061153b565b601f1984166114ea866112d7565b5f5b82811015611511578489015182556001820191506020850194506020810190506114ec565b8683101561152e578489015161152a601f89168261143d565b8355505b6001600288020188555050505b505050505050565b7f50726f6a656374206973206e6f74206f6e676f696e672e0000000000000000005f82015250565b5f611577601783610c16565b915061158282611543565b602082019050919050565b5f6020820190508181035f8301526115a48161156b565b9050919050565b7f50726f6a65637420646561646c696e6520686173207061737365642e000000005f82015250565b5f6115df601c83610c16565b91506115ea826115ab565b602082019050919050565b5f6020820190508181035f83015261160c816115d3565b905091905056fea264697066735822122020ca5293c7bfeea649be183cc0f0f960202b9907587d2c24e5380c9f98193ef564736f6c634300081a0033",
					"opcodes": "PUSH1 0x80 PUSH1 0x40 MSTORE CALLVALUE DUP1 ISZERO PUSH1 0xE JUMPI PUSH0 DUP1 REVERT JUMPDEST POP PUSH2 0x1649 DUP1 PUSH2 0x1C PUSH0 CODECOPY PUSH0 RETURN INVALID PUSH1 0x80 PUSH1 0x40 MSTORE PUSH1 0x4 CALLDATASIZE LT PUSH2 0xA6 JUMPI PUSH0 CALLDATALOAD PUSH1 0xE0 SHR DUP1 PUSH4 0x7284E416 GT PUSH2 0x63 JUMPI DUP1 PUSH4 0x7284E416 EQ PUSH2 0x16A JUMPI DUP1 PUSH4 0xC19D93FB EQ PUSH2 0x194 JUMPI DUP1 PUSH4 0xE8668C52 EQ PUSH2 0x1BE JUMPI DUP1 PUSH4 0xED88C68E EQ PUSH2 0x1E6 JUMPI DUP1 PUSH4 0xF441B1C8 EQ PUSH2 0x1F0 JUMPI DUP1 PUSH4 0xF8626AF8 EQ PUSH2 0x21A JUMPI PUSH2 0xA6 JUMP JUMPDEST DUP1 PUSH4 0x2D05D3F EQ PUSH2 0xAA JUMPI DUP1 PUSH4 0x24600FC3 EQ PUSH2 0xD4 JUMPI DUP1 PUSH4 0x2636B945 EQ PUSH2 0xEA JUMPI DUP1 PUSH4 0x29DCB0CF EQ PUSH2 0x114 JUMPI DUP1 PUSH4 0x3DEB33E7 EQ PUSH2 0x13E JUMPI DUP1 PUSH4 0x590E1AE3 EQ PUSH2 0x154 JUMPI JUMPDEST PUSH0 DUP1 REVERT JUMPDEST CALLVALUE DUP1 ISZERO PUSH2 0xB5 JUMPI PUSH0 DUP1 REVERT JUMPDEST POP PUSH2 0xBE PUSH2 0x257 JUMP JUMPDEST PUSH1 0x40 MLOAD PUSH2 0xCB SWAP2 SWAP1 PUSH2 0xBC2 JUMP JUMPDEST PUSH1 0x40 MLOAD DUP1 SWAP2 SUB SWAP1 RETURN JUMPDEST CALLVALUE DUP1 ISZERO PUSH2 0xDF JUMPI PUSH0 DUP1 REVERT JUMPDEST POP PUSH2 0xE8 PUSH2 0x27A JUMP JUMPDEST STOP JUMPDEST CALLVALUE DUP1 ISZERO PUSH2 0xF5 JUMPI PUSH0 DUP1 REVERT JUMPDEST POP PUSH2 0xFE PUSH2 0x460 JUMP JUMPDEST PUSH1 0x40 MLOAD PUSH2 0x10B SWAP2 SWAP1 PUSH2 0xBF3 JUMP JUMPDEST PUSH1 0x40 MLOAD DUP1 SWAP2 SUB SWAP1 RETURN JUMPDEST CALLVALUE DUP1 ISZERO PUSH2 0x11F JUMPI PUSH0 DUP1 REVERT JUMPDEST POP PUSH2 0x128 PUSH2 0x466 JUMP JUMPDEST PUSH1 0x40 MLOAD PUSH2 0x135 SWAP2 SWAP1 PUSH2 0xBF3 JUMP JUMPDEST PUSH1 0x40 MLOAD DUP1 SWAP2 SUB SWAP1 RETURN JUMPDEST CALLVALUE DUP1 ISZERO PUSH2 0x149 JUMPI PUSH0 DUP1 REVERT JUMPDEST POP PUSH2 0x152 PUSH2 0x46C JUMP JUMPDEST STOP JUMPDEST CALLVALUE DUP1 ISZERO PUSH2 0x15F JUMPI PUSH0 DUP1 REVERT JUMPDEST POP PUSH2 0x168 PUSH2 0x5D0 JUMP JUMPDEST STOP JUMPDEST CALLVALUE DUP1 ISZERO PUSH2 0x175 JUMPI PUSH0 DUP1 REVERT JUMPDEST POP PUSH2 0x17E PUSH2 0x837 JUMP JUMPDEST PUSH1 0x40 MLOAD PUSH2 0x18B SWAP2 SWAP1 PUSH2 0xC7C JUMP JUMPDEST PUSH1 0x40 MLOAD DUP1 SWAP2 SUB SWAP1 RETURN JUMPDEST CALLVALUE DUP1 ISZERO PUSH2 0x19F JUMPI PUSH0 DUP1 REVERT JUMPDEST POP PUSH2 0x1A8 PUSH2 0x8C3 JUMP JUMPDEST PUSH1 0x40 MLOAD PUSH2 0x1B5 SWAP2 SWAP1 PUSH2 0xD0F JUMP JUMPDEST PUSH1 0x40 MLOAD DUP1 SWAP2 SUB SWAP1 RETURN JUMPDEST CALLVALUE DUP1 ISZERO PUSH2 0x1C9 JUMPI PUSH0 DUP1 REVERT JUMPDEST POP PUSH2 0x1E4 PUSH1 0x4 DUP1 CALLDATASIZE SUB DUP2 ADD SWAP1 PUSH2 0x1DF SWAP2 SWAP1 PUSH2 0xEB9 JUMP JUMPDEST PUSH2 0x8D5 JUMP JUMPDEST STOP JUMPDEST PUSH2 0x1EE PUSH2 0x96C JUMP JUMPDEST STOP JUMPDEST CALLVALUE DUP1 ISZERO PUSH2 0x1FB JUMPI PUSH0 DUP1 REVERT JUMPDEST POP PUSH2 0x204 PUSH2 0xB2F JUMP JUMPDEST PUSH1 0x40 MLOAD PUSH2 0x211 SWAP2 SWAP1 PUSH2 0xBF3 JUMP JUMPDEST PUSH1 0x40 MLOAD DUP1 SWAP2 SUB SWAP1 RETURN JUMPDEST CALLVALUE DUP1 ISZERO PUSH2 0x225 JUMPI PUSH0 DUP1 REVERT JUMPDEST POP PUSH2 0x240 PUSH1 0x4 DUP1 CALLDATASIZE SUB DUP2 ADD SWAP1 PUSH2 0x23B SWAP2 SWAP1 PUSH2 0xF39 JUMP JUMPDEST PUSH2 0xB35 JUMP JUMPDEST PUSH1 0x40 MLOAD PUSH2 0x24E SWAP3 SWAP2 SWAP1 PUSH2 0xF64 JUMP JUMPDEST PUSH1 0x40 MLOAD DUP1 SWAP2 SUB SWAP1 RETURN JUMPDEST PUSH0 DUP1 SLOAD SWAP1 PUSH2 0x100 EXP SWAP1 DIV PUSH20 0xFFFFFFFFFFFFFFFFFFFFFFFFFFFFFFFFFFFFFFFF AND DUP2 JUMP JUMPDEST PUSH0 DUP1 SLOAD SWAP1 PUSH2 0x100 EXP SWAP1 DIV PUSH20 0xFFFFFFFFFFFFFFFFFFFFFFFFFFFFFFFFFFFFFFFF AND PUSH20 0xFFFFFFFFFFFFFFFFFFFFFFFFFFFFFFFFFFFFFFFF AND CALLER PUSH20 0xFFFFFFFFFFFFFFFFFFFFFFFFFFFFFFFFFFFFFFFF AND EQ PUSH2 0x2D0 JUMPI PUSH0 DUP1 REVERT JUMPDEST PUSH1 0x3 SLOAD TIMESTAMP GT PUSH2 0x314 JUMPI PUSH1 0x40 MLOAD PUSH32 0x8C379A000000000000000000000000000000000000000000000000000000000 DUP2 MSTORE PUSH1 0x4 ADD PUSH2 0x30B SWAP1 PUSH2 0xFD5 JUMP JUMPDEST PUSH1 0x40 MLOAD DUP1 SWAP2 SUB SWAP1 REVERT JUMPDEST PUSH1 0x1 PUSH1 0x2 DUP2 GT ISZERO PUSH2 0x328 JUMPI PUSH2 0x327 PUSH2 0xC9C JUMP JUMPDEST JUMPDEST PUSH1 0x5 PUSH0 SWAP1 SLOAD SWAP1 PUSH2 0x100 EXP SWAP1 DIV PUSH1 0xFF AND PUSH1 0x2 DUP2 GT ISZERO PUSH2 0x349 JUMPI PUSH2 0x348 PUSH2 0xC9C JUMP JUMPDEST JUMPDEST EQ PUSH2 0x389 JUMPI PUSH1 0x40 MLOAD PUSH32 0x8C379A000000000000000000000000000000000000000000000000000000000 DUP2 MSTORE PUSH1 0x4 ADD PUSH2 0x380 SWAP1 PUSH2 0x103D JUMP JUMPDEST PUSH1 0x40 MLOAD DUP1 SWAP2 SUB SWAP1 REVERT JUMPDEST PUSH0 SELFBALANCE SWAP1 POP PUSH0 DUP1 SLOAD SWAP1 PUSH2 0x100 EXP SWAP1 DIV PUSH20 0xFFFFFFFFFFFFFFFFFFFFFFFFFFFFFFFFFFFFFFFF AND PUSH20 0xFFFFFFFFFFFFFFFFFFFFFFFFFFFFFFFFFFFFFFFF AND PUSH2 0x8FC DUP3 SWAP1 DUP2 ISZERO MUL SWAP1 PUSH1 0x40 MLOAD PUSH0 PUSH1 0x40 MLOAD DUP1 DUP4 SUB DUP2 DUP6 DUP9 DUP9 CALL SWAP4 POP POP POP POP ISZERO DUP1 ISZERO PUSH2 0x3EF JUMPI RETURNDATASIZE PUSH0 DUP1 RETURNDATACOPY RETURNDATASIZE PUSH0 REVERT JUMPDEST POP PUSH0 DUP1 SLOAD SWAP1 PUSH2 0x100 EXP SWAP1 DIV PUSH20 0xFFFFFFFFFFFFFFFFFFFFFFFFFFFFFFFFFFFFFFFF AND PUSH20 0xFFFFFFFFFFFFFFFFFFFFFFFFFFFFFFFFFFFFFFFF AND PUSH32 0xEAFF4B37086828766AD3268786972C0CD24259D4C87A80F9D3963A3C3D999B0D DUP3 PUSH1 0x40 MLOAD PUSH2 0x455 SWAP2 SWAP1 PUSH2 0xBF3 JUMP JUMPDEST PUSH1 0x40 MLOAD DUP1 SWAP2 SUB SWAP1 LOG2 POP JUMP JUMPDEST PUSH1 0x2 SLOAD DUP2 JUMP JUMPDEST PUSH1 0x3 SLOAD DUP2 JUMP JUMPDEST PUSH1 0x3 SLOAD TIMESTAMP GT PUSH2 0x4B0 JUMPI PUSH1 0x40 MLOAD PUSH32 0x8C379A000000000000000000000000000000000000000000000000000000000 DUP2 MSTORE PUSH1 0x4 ADD PUSH2 0x4A7 SWAP1 PUSH2 0xFD5 JUMP JUMPDEST PUSH1 0x40 MLOAD DUP1 SWAP2 SUB SWAP1 REVERT JUMPDEST PUSH0 PUSH1 0x2 DUP2 GT ISZERO PUSH2 0x4C3 JUMPI PUSH2 0x4C2 PUSH2 0xC9C JUMP JUMPDEST JUMPDEST PUSH1 0x5 PUSH0 SWAP1 SLOAD SWAP1 PUSH2 0x100 EXP SWAP1 DIV PUSH1 0xFF AND PUSH1 0x2 DUP2 GT ISZERO PUSH2 0x4E4 JUMPI PUSH2 0x4E3 PUSH2 0xC9C JUMP JUMPDEST JUMPDEST EQ PUSH2 0x524 JUMPI PUSH1 0x40 MLOAD PUSH32 0x8C379A000000000000000000000000000000000000000000000000000000000 DUP2 MSTORE PUSH1 0x4 ADD PUSH2 0x51B SWAP1 PUSH2 0x10A5 JUMP JUMPDEST PUSH1 0x40 MLOAD DUP1 SWAP2 SUB SWAP1 REVERT JUMPDEST PUSH1 0x2 SLOAD PUSH1 0x4 SLOAD LT PUSH2 0x55E JUMPI PUSH1 0x1 PUSH1 0x5 PUSH0 PUSH2 0x100 EXP DUP2 SLOAD DUP2 PUSH1 0xFF MUL NOT AND SWAP1 DUP4 PUSH1 0x2 DUP2 GT ISZERO PUSH2 0x554 JUMPI PUSH2 0x553 PUSH2 0xC9C JUMP JUMPDEST JUMPDEST MUL OR SWAP1 SSTORE POP PUSH2 0x589 JUMP JUMPDEST PUSH1 0x2 PUSH1 0x5 PUSH0 PUSH2 0x100 EXP DUP2 SLOAD DUP2 PUSH1 0xFF MUL NOT AND SWAP1 DUP4 PUSH1 0x2 DUP2 GT ISZERO PUSH2 0x583 JUMPI PUSH2 0x582 PUSH2 0xC9C JUMP JUMPDEST JUMPDEST MUL OR SWAP1 SSTORE POP JUMPDEST PUSH32 0x35BB0CD5F89DEF7829CADBFE305076FCA9A4811F847E3CE1CD4E017651DDA4D4 PUSH1 0x5 PUSH0 SWAP1 SLOAD SWAP1 PUSH2 0x100 EXP SWAP1 DIV PUSH1 0xFF AND PUSH1 0x40 MLOAD PUSH2 0x5C6 SWAP2 SWAP1 PUSH2 0xD0F JUMP JUMPDEST PUSH1 0x40 MLOAD DUP1 SWAP2 SUB SWAP1 LOG1 JUMP JUMPDEST PUSH1 0x3 SLOAD TIMESTAMP GT PUSH2 0x614 JUMPI PUSH1 0x40 MLOAD PUSH32 0x8C379A000000000000000000000000000000000000000000000000000000000 DUP2 MSTORE PUSH1 0x4 ADD PUSH2 0x60B SWAP1 PUSH2 0xFD5 JUMP JUMPDEST PUSH1 0x40 MLOAD DUP1 SWAP2 SUB SWAP1 REVERT JUMPDEST PUSH1 0x2 DUP1 DUP2 GT ISZERO PUSH2 0x627 JUMPI PUSH2 0x626 PUSH2 0xC9C JUMP JUMPDEST JUMPDEST PUSH1 0x5 PUSH0 SWAP1 SLOAD SWAP1 PUSH2 0x100 EXP SWAP1 DIV PUSH1 0xFF AND PUSH1 0x2 DUP2 GT ISZERO PUSH2 0x648 JUMPI PUSH2 0x647 PUSH2 0xC9C JUMP JUMPDEST JUMPDEST EQ PUSH2 0x688 JUMPI PUSH1 0x40 MLOAD PUSH32 0x8C379A000000000000000000000000000000000000000000000000000000000 DUP2 MSTORE PUSH1 0x4 ADD PUSH2 0x67F SWAP1 PUSH2 0x110D JUMP JUMPDEST PUSH1 0x40 MLOAD DUP1 SWAP2 SUB SWAP1 REVERT JUMPDEST PUSH0 DUP1 PUSH1 0x1 PUSH1 0x6 DUP1 SLOAD SWAP1 POP PUSH2 0x69C SWAP2 SWAP1 PUSH2 0x1158 JUMP JUMPDEST SWAP1 POP JUMPDEST PUSH0 DUP2 LT PUSH2 0x75F JUMPI CALLER PUSH20 0xFFFFFFFFFFFFFFFFFFFFFFFFFFFFFFFFFFFFFFFF AND PUSH1 0x6 DUP3 DUP2 SLOAD DUP2 LT PUSH2 0x6D1 JUMPI PUSH2 0x6D0 PUSH2 0x118B JUMP JUMPDEST JUMPDEST SWAP1 PUSH0 MSTORE PUSH1 0x20 PUSH0 KECCAK256 SWAP1 PUSH1 0x2 MUL ADD PUSH0 ADD PUSH0 SWAP1 SLOAD SWAP1 PUSH2 0x100 EXP SWAP1 DIV PUSH20 0xFFFFFFFFFFFFFFFFFFFFFFFFFFFFFFFFFFFFFFFF AND PUSH20 0xFFFFFFFFFFFFFFFFFFFFFFFFFFFFFFFFFFFFFFFF AND SUB PUSH2 0x74C JUMPI PUSH1 0x6 DUP2 DUP2 SLOAD DUP2 LT PUSH2 0x72E JUMPI PUSH2 0x72D PUSH2 0x118B JUMP JUMPDEST JUMPDEST SWAP1 PUSH0 MSTORE PUSH1 0x20 PUSH0 KECCAK256 SWAP1 PUSH1 0x2 MUL ADD PUSH1 0x1 ADD SLOAD DUP3 PUSH2 0x749 SWAP2 SWAP1 PUSH2 0x11B8 JUMP JUMPDEST SWAP2 POP JUMPDEST DUP1 DUP1 PUSH2 0x757 SWAP1 PUSH2 0x11EB JUMP JUMPDEST SWAP2 POP POP PUSH2 0x69F JUMP JUMPDEST POP PUSH0 DUP2 GT PUSH2 0x7A2 JUMPI PUSH1 0x40 MLOAD PUSH32 0x8C379A000000000000000000000000000000000000000000000000000000000 DUP2 MSTORE PUSH1 0x4 ADD PUSH2 0x799 SWAP1 PUSH2 0x125C JUMP JUMPDEST PUSH1 0x40 MLOAD DUP1 SWAP2 SUB SWAP1 REVERT JUMPDEST CALLER PUSH20 0xFFFFFFFFFFFFFFFFFFFFFFFFFFFFFFFFFFFFFFFF AND PUSH2 0x8FC DUP3 SWAP1 DUP2 ISZERO MUL SWAP1 PUSH1 0x40 MLOAD PUSH0 PUSH1 0x40 MLOAD DUP1 DUP4 SUB DUP2 DUP6 DUP9 DUP9 CALL SWAP4 POP POP POP POP ISZERO DUP1 ISZERO PUSH2 0x7E5 JUMPI RETURNDATASIZE PUSH0 DUP1 RETURNDATACOPY RETURNDATASIZE PUSH0 REVERT JUMPDEST POP CALLER PUSH20 0xFFFFFFFFFFFFFFFFFFFFFFFFFFFFFFFFFFFFFFFF AND PUSH32 0xBADA1A1BF129E41A8AF5ABE00997BD8A8CB1770CB0CF68314EB4B1D6C4271397 DUP3 PUSH1 0x40 MLOAD PUSH2 0x82C SWAP2 SWAP1 PUSH2 0xBF3 JUMP JUMPDEST PUSH1 0x40 MLOAD DUP1 SWAP2 SUB SWAP1 LOG2 POP JUMP JUMPDEST PUSH1 0x1 DUP1 SLOAD PUSH2 0x844 SWAP1 PUSH2 0x12A7 JUMP JUMPDEST DUP1 PUSH1 0x1F ADD PUSH1 0x20 DUP1 SWAP2 DIV MUL PUSH1 0x20 ADD PUSH1 0x40 MLOAD SWAP1 DUP2 ADD PUSH1 0x40 MSTORE DUP1 SWAP3 SWAP2 SWAP1 DUP2 DUP2 MSTORE PUSH1 0x20 ADD DUP3 DUP1 SLOAD PUSH2 0x870 SWAP1 PUSH2 0x12A7 JUMP JUMPDEST DUP1 ISZERO PUSH2 0x8BB JUMPI DUP1 PUSH1 0x1F LT PUSH2 0x892 JUMPI PUSH2 0x100 DUP1 DUP4 SLOAD DIV MUL DUP4 MSTORE SWAP2 PUSH1 0x20 ADD SWAP2 PUSH2 0x8BB JUMP JUMPDEST DUP3 ADD SWAP2 SWAP1 PUSH0 MSTORE PUSH1 0x20 PUSH0 KECCAK256 SWAP1 JUMPDEST DUP2 SLOAD DUP2 MSTORE SWAP1 PUSH1 0x1 ADD SWAP1 PUSH1 0x20 ADD DUP1 DUP4 GT PUSH2 0x89E JUMPI DUP3 SWAP1 SUB PUSH1 0x1F AND DUP3 ADD SWAP2 JUMPDEST POP POP POP POP POP DUP2 JUMP JUMPDEST PUSH1 0x5 PUSH0 SWAP1 SLOAD SWAP1 PUSH2 0x100 EXP SWAP1 DIV PUSH1 0xFF AND DUP2 JUMP JUMPDEST DUP4 PUSH0 DUP1 PUSH2 0x100 EXP DUP2 SLOAD DUP2 PUSH20 0xFFFFFFFFFFFFFFFFFFFFFFFFFFFFFFFFFFFFFFFF MUL NOT AND SWAP1 DUP4 PUSH20 0xFFFFFFFFFFFFFFFFFFFFFFFFFFFFFFFFFFFFFFFF AND MUL OR SWAP1 SSTORE POP DUP3 PUSH1 0x1 SWAP1 DUP2 PUSH2 0x923 SWAP2 SWAP1 PUSH2 0x1474 JUMP JUMPDEST POP DUP2 PUSH1 0x2 DUP2 SWAP1 SSTORE POP DUP1 TIMESTAMP PUSH2 0x937 SWAP2 SWAP1 PUSH2 0x11B8 JUMP JUMPDEST PUSH1 0x3 DUP2 SWAP1 SSTORE POP PUSH0 PUSH1 0x5 PUSH0 PUSH2 0x100 EXP DUP2 SLOAD DUP2 PUSH1 0xFF MUL NOT AND SWAP1 DUP4 PUSH1 0x2 DUP2 GT ISZERO PUSH2 0x961 JUMPI PUSH2 0x960 PUSH2 0xC9C JUMP JUMPDEST JUMPDEST MUL OR SWAP1 SSTORE POP POP POP POP POP JUMP JUMPDEST PUSH0 PUSH1 0x2 DUP2 GT ISZERO PUSH2 0x97F JUMPI PUSH2 0x97E PUSH2 0xC9C JUMP JUMPDEST JUMPDEST PUSH1 0x5 PUSH0 SWAP1 SLOAD SWAP1 PUSH2 0x100 EXP SWAP1 DIV PUSH1 0xFF AND PUSH1 0x2 DUP2 GT ISZERO PUSH2 0x9A0 JUMPI PUSH2 0x99F PUSH2 0xC9C JUMP JUMPDEST JUMPDEST EQ PUSH2 0x9E0 JUMPI PUSH1 0x40 MLOAD PUSH32 0x8C379A000000000000000000000000000000000000000000000000000000000 DUP2 MSTORE PUSH1 0x4 ADD PUSH2 0x9D7 SWAP1 PUSH2 0x158D JUMP JUMPDEST PUSH1 0x40 MLOAD DUP1 SWAP2 SUB SWAP1 REVERT JUMPDEST PUSH1 0x3 SLOAD TIMESTAMP LT PUSH2 0xA24 JUMPI PUSH1 0x40 MLOAD PUSH32 0x8C379A000000000000000000000000000000000000000000000000000000000 DUP2 MSTORE PUSH1 0x4 ADD PUSH2 0xA1B SWAP1 PUSH2 0x15F5 JUMP JUMPDEST PUSH1 0x40 MLOAD DUP1 SWAP2 SUB SWAP1 REVERT JUMPDEST PUSH1 0x6 PUSH1 0x40 MLOAD DUP1 PUSH1 0x40 ADD PUSH1 0x40 MSTORE DUP1 CALLER PUSH20 0xFFFFFFFFFFFFFFFFFFFFFFFFFFFFFFFFFFFFFFFF AND DUP2 MSTORE PUSH1 0x20 ADD CALLVALUE DUP2 MSTORE POP SWAP1 DUP1 PUSH1 0x1 DUP2 SLOAD ADD DUP1 DUP3 SSTORE DUP1 SWAP2 POP POP PUSH1 0x1 SWAP1 SUB SWAP1 PUSH0 MSTORE PUSH1 0x20 PUSH0 KECCAK256 SWAP1 PUSH1 0x2 MUL ADD PUSH0 SWAP1 SWAP2 SWAP1 SWAP2 SWAP1 SWAP2 POP PUSH0 DUP3 ADD MLOAD DUP2 PUSH0 ADD PUSH0 PUSH2 0x100 EXP DUP2 SLOAD DUP2 PUSH20 0xFFFFFFFFFFFFFFFFFFFFFFFFFFFFFFFFFFFFFFFF MUL NOT AND SWAP1 DUP4 PUSH20 0xFFFFFFFFFFFFFFFFFFFFFFFFFFFFFFFFFFFFFFFF AND MUL OR SWAP1 SSTORE POP PUSH1 0x20 DUP3 ADD MLOAD DUP2 PUSH1 0x1 ADD SSTORE POP POP CALLVALUE PUSH1 0x4 PUSH0 DUP3 DUP3 SLOAD PUSH2 0xAD8 SWAP2 SWAP1 PUSH2 0x11B8 JUMP JUMPDEST SWAP3 POP POP DUP2 SWAP1 SSTORE POP CALLER PUSH20 0xFFFFFFFFFFFFFFFFFFFFFFFFFFFFFFFFFFFFFFFF AND PUSH32 0x264F630D9EFA0D07053A31163641D9FCC0ADAFC9D9E76F1C37C2CE3A558D2C52 CALLVALUE PUSH1 0x40 MLOAD PUSH2 0xB25 SWAP2 SWAP1 PUSH2 0xBF3 JUMP JUMPDEST PUSH1 0x40 MLOAD DUP1 SWAP2 SUB SWAP1 LOG2 JUMP JUMPDEST PUSH1 0x4 SLOAD DUP2 JUMP JUMPDEST PUSH1 0x6 DUP2 DUP2 SLOAD DUP2 LT PUSH2 0xB44 JUMPI PUSH0 DUP1 REVERT JUMPDEST SWAP1 PUSH0 MSTORE PUSH1 0x20 PUSH0 KECCAK256 SWAP1 PUSH1 0x2 MUL ADD PUSH0 SWAP2 POP SWAP1 POP DUP1 PUSH0 ADD PUSH0 SWAP1 SLOAD SWAP1 PUSH2 0x100 EXP SWAP1 DIV PUSH20 0xFFFFFFFFFFFFFFFFFFFFFFFFFFFFFFFFFFFFFFFF AND SWAP1 DUP1 PUSH1 0x1 ADD SLOAD SWAP1 POP DUP3 JUMP JUMPDEST PUSH0 PUSH20 0xFFFFFFFFFFFFFFFFFFFFFFFFFFFFFFFFFFFFFFFF DUP3 AND SWAP1 POP SWAP2 SWAP1 POP JUMP JUMPDEST PUSH0 PUSH2 0xBAC DUP3 PUSH2 0xB83 JUMP JUMPDEST SWAP1 POP SWAP2 SWAP1 POP JUMP JUMPDEST PUSH2 0xBBC DUP2 PUSH2 0xBA2 JUMP JUMPDEST DUP3 MSTORE POP POP JUMP JUMPDEST PUSH0 PUSH1 0x20 DUP3 ADD SWAP1 POP PUSH2 0xBD5 PUSH0 DUP4 ADD DUP5 PUSH2 0xBB3 JUMP JUMPDEST SWAP3 SWAP2 POP POP JUMP JUMPDEST PUSH0 DUP2 SWAP1 POP SWAP2 SWAP1 POP JUMP JUMPDEST PUSH2 0xBED DUP2 PUSH2 0xBDB JUMP JUMPDEST DUP3 MSTORE POP POP JUMP JUMPDEST PUSH0 PUSH1 0x20 DUP3 ADD SWAP1 POP PUSH2 0xC06 PUSH0 DUP4 ADD DUP5 PUSH2 0xBE4 JUMP JUMPDEST SWAP3 SWAP2 POP POP JUMP JUMPDEST PUSH0 DUP2 MLOAD SWAP1 POP SWAP2 SWAP1 POP JUMP JUMPDEST PUSH0 DUP3 DUP3 MSTORE PUSH1 0x20 DUP3 ADD SWAP1 POP SWAP3 SWAP2 POP POP JUMP JUMPDEST DUP3 DUP2 DUP4 MCOPY PUSH0 DUP4 DUP4 ADD MSTORE POP POP POP JUMP JUMPDEST PUSH0 PUSH1 0x1F NOT PUSH1 0x1F DUP4 ADD AND SWAP1 POP SWAP2 SWAP1 POP JUMP JUMPDEST PUSH0 PUSH2 0xC4E DUP3 PUSH2 0xC0C JUMP JUMPDEST PUSH2 0xC58 DUP2 DUP6 PUSH2 0xC16 JUMP JUMPDEST SWAP4 POP PUSH2 0xC68 DUP2 DUP6 PUSH1 0x20 DUP7 ADD PUSH2 0xC26 JUMP JUMPDEST PUSH2 0xC71 DUP2 PUSH2 0xC34 JUMP JUMPDEST DUP5 ADD SWAP2 POP POP SWAP3 SWAP2 POP POP JUMP JUMPDEST PUSH0 PUSH1 0x20 DUP3 ADD SWAP1 POP DUP2 DUP2 SUB PUSH0 DUP4 ADD MSTORE PUSH2 0xC94 DUP2 DUP5 PUSH2 0xC44 JUMP JUMPDEST SWAP1 POP SWAP3 SWAP2 POP POP JUMP JUMPDEST PUSH32 0x4E487B7100000000000000000000000000000000000000000000000000000000 PUSH0 MSTORE PUSH1 0x21 PUSH1 0x4 MSTORE PUSH1 0x24 PUSH0 REVERT JUMPDEST PUSH1 0x3 DUP2 LT PUSH2 0xCDA JUMPI PUSH2 0xCD9 PUSH2 0xC9C JUMP JUMPDEST JUMPDEST POP JUMP JUMPDEST PUSH0 DUP2 SWAP1 POP PUSH2 0xCEA DUP3 PUSH2 0xCC9 JUMP JUMPDEST SWAP2 SWAP1 POP JUMP JUMPDEST PUSH0 PUSH2 0xCF9 DUP3 PUSH2 0xCDD JUMP JUMPDEST SWAP1 POP SWAP2 SWAP1 POP JUMP JUMPDEST PUSH2 0xD09 DUP2 PUSH2 0xCEF JUMP JUMPDEST DUP3 MSTORE POP POP JUMP JUMPDEST PUSH0 PUSH1 0x20 DUP3 ADD SWAP1 POP PUSH2 0xD22 PUSH0 DUP4 ADD DUP5 PUSH2 0xD00 JUMP JUMPDEST SWAP3 SWAP2 POP POP JUMP JUMPDEST PUSH0 PUSH1 0x40 MLOAD SWAP1 POP SWAP1 JUMP JUMPDEST PUSH0 DUP1 REVERT JUMPDEST PUSH0 DUP1 REVERT JUMPDEST PUSH2 0xD42 DUP2 PUSH2 0xBA2 JUMP JUMPDEST DUP2 EQ PUSH2 0xD4C JUMPI PUSH0 DUP1 REVERT JUMPDEST POP JUMP JUMPDEST PUSH0 DUP2 CALLDATALOAD SWAP1 POP PUSH2 0xD5D DUP2 PUSH2 0xD39 JUMP JUMPDEST SWAP3 SWAP2 POP POP JUMP JUMPDEST PUSH0 DUP1 REVERT JUMPDEST PUSH0 DUP1 REVERT JUMPDEST PUSH32 0x4E487B7100000000000000000000000000000000000000000000000000000000 PUSH0 MSTORE PUSH1 0x41 PUSH1 0x4 MSTORE PUSH1 0x24 PUSH0 REVERT JUMPDEST PUSH2 0xDA1 DUP3 PUSH2 0xC34 JUMP JUMPDEST DUP2 ADD DUP2 DUP2 LT PUSH8 0xFFFFFFFFFFFFFFFF DUP3 GT OR ISZERO PUSH2 0xDC0 JUMPI PUSH2 0xDBF PUSH2 0xD6B JUMP JUMPDEST JUMPDEST DUP1 PUSH1 0x40 MSTORE POP POP POP JUMP JUMPDEST PUSH0 PUSH2 0xDD2 PUSH2 0xD28 JUMP JUMPDEST SWAP1 POP PUSH2 0xDDE DUP3 DUP3 PUSH2 0xD98 JUMP JUMPDEST SWAP2 SWAP1 POP JUMP JUMPDEST PUSH0 PUSH8 0xFFFFFFFFFFFFFFFF DUP3 GT ISZERO PUSH2 0xDFD JUMPI PUSH2 0xDFC PUSH2 0xD6B JUMP JUMPDEST JUMPDEST PUSH2 0xE06 DUP3 PUSH2 0xC34 JUMP JUMPDEST SWAP1 POP PUSH1 0x20 DUP2 ADD SWAP1 POP SWAP2 SWAP1 POP JUMP JUMPDEST DUP3 DUP2 DUP4 CALLDATACOPY PUSH0 DUP4 DUP4 ADD MSTORE POP POP POP JUMP JUMPDEST PUSH0 PUSH2 0xE33 PUSH2 0xE2E DUP5 PUSH2 0xDE3 JUMP JUMPDEST PUSH2 0xDC9 JUMP JUMPDEST SWAP1 POP DUP3 DUP2 MSTORE PUSH1 0x20 DUP2 ADD DUP5 DUP5 DUP5 ADD GT ISZERO PUSH2 0xE4F JUMPI PUSH2 0xE4E PUSH2 0xD67 JUMP JUMPDEST JUMPDEST PUSH2 0xE5A DUP5 DUP3 DUP6 PUSH2 0xE13 JUMP JUMPDEST POP SWAP4 SWAP3 POP POP POP JUMP JUMPDEST PUSH0 DUP3 PUSH1 0x1F DUP4 ADD SLT PUSH2 0xE76 JUMPI PUSH2 0xE75 PUSH2 0xD63 JUMP JUMPDEST JUMPDEST DUP2 CALLDATALOAD PUSH2 0xE86 DUP5 DUP3 PUSH1 0x20 DUP7 ADD PUSH2 0xE21 JUMP JUMPDEST SWAP2 POP POP SWAP3 SWAP2 POP POP JUMP JUMPDEST PUSH2 0xE98 DUP2 PUSH2 0xBDB JUMP JUMPDEST DUP2 EQ PUSH2 0xEA2 JUMPI PUSH0 DUP1 REVERT JUMPDEST POP JUMP JUMPDEST PUSH0 DUP2 CALLDATALOAD SWAP1 POP PUSH2 0xEB3 DUP2 PUSH2 0xE8F JUMP JUMPDEST SWAP3 SWAP2 POP POP JUMP JUMPDEST PUSH0 DUP1 PUSH0 DUP1 PUSH1 0x80 DUP6 DUP8 SUB SLT ISZERO PUSH2 0xED1 JUMPI PUSH2 0xED0 PUSH2 0xD31 JUMP JUMPDEST JUMPDEST PUSH0 PUSH2 0xEDE DUP8 DUP3 DUP9 ADD PUSH2 0xD4F JUMP JUMPDEST SWAP5 POP POP PUSH1 0x20 DUP6 ADD CALLDATALOAD PUSH8 0xFFFFFFFFFFFFFFFF DUP2 GT ISZERO PUSH2 0xEFF JUMPI PUSH2 0xEFE PUSH2 0xD35 JUMP JUMPDEST JUMPDEST PUSH2 0xF0B DUP8 DUP3 DUP9 ADD PUSH2 0xE62 JUMP JUMPDEST SWAP4 POP POP PUSH1 0x40 PUSH2 0xF1C DUP8 DUP3 DUP9 ADD PUSH2 0xEA5 JUMP JUMPDEST SWAP3 POP POP PUSH1 0x60 PUSH2 0xF2D DUP8 DUP3 DUP9 ADD PUSH2 0xEA5 JUMP JUMPDEST SWAP2 POP POP SWAP3 SWAP6 SWAP2 SWAP5 POP SWAP3 POP JUMP JUMPDEST PUSH0 PUSH1 0x20 DUP3 DUP5 SUB SLT ISZERO PUSH2 0xF4E JUMPI PUSH2 0xF4D PUSH2 0xD31 JUMP JUMPDEST JUMPDEST PUSH0 PUSH2 0xF5B DUP5 DUP3 DUP6 ADD PUSH2 0xEA5 JUMP JUMPDEST SWAP2 POP POP SWAP3 SWAP2 POP POP JUMP JUMPDEST PUSH0 PUSH1 0x40 DUP3 ADD SWAP1 POP PUSH2 0xF77 PUSH0 DUP4 ADD DUP6 PUSH2 0xBB3 JUMP JUMPDEST PUSH2 0xF84 PUSH1 0x20 DUP4 ADD DUP5 PUSH2 0xBE4 JUMP JUMPDEST SWAP4 SWAP3 POP POP POP JUMP JUMPDEST PUSH32 0x6F6E6C79206166746572206465616C696E652100000000000000000000000000 PUSH0 DUP3 ADD MSTORE POP JUMP JUMPDEST PUSH0 PUSH2 0xFBF PUSH1 0x13 DUP4 PUSH2 0xC16 JUMP JUMPDEST SWAP2 POP PUSH2 0xFCA DUP3 PUSH2 0xF8B JUMP JUMPDEST PUSH1 0x20 DUP3 ADD SWAP1 POP SWAP2 SWAP1 POP JUMP JUMPDEST PUSH0 PUSH1 0x20 DUP3 ADD SWAP1 POP DUP2 DUP2 SUB PUSH0 DUP4 ADD MSTORE PUSH2 0xFEC DUP2 PUSH2 0xFB3 JUMP JUMPDEST SWAP1 POP SWAP2 SWAP1 POP JUMP JUMPDEST PUSH32 0x50726F6A656374206973206E6F74207375636365737366756C00000000000000 PUSH0 DUP3 ADD MSTORE POP JUMP JUMPDEST PUSH0 PUSH2 0x1027 PUSH1 0x19 DUP4 PUSH2 0xC16 JUMP JUMPDEST SWAP2 POP PUSH2 0x1032 DUP3 PUSH2 0xFF3 JUMP JUMPDEST PUSH1 0x20 DUP3 ADD SWAP1 POP SWAP2 SWAP1 POP JUMP JUMPDEST PUSH0 PUSH1 0x20 DUP3 ADD SWAP1 POP DUP2 DUP2 SUB PUSH0 DUP4 ADD MSTORE PUSH2 0x1054 DUP2 PUSH2 0x101B JUMP JUMPDEST SWAP1 POP SWAP2 SWAP1 POP JUMP JUMPDEST PUSH32 0x50726F6A656374206973206E6F74206F6E676F696E6700000000000000000000 PUSH0 DUP3 ADD MSTORE POP JUMP JUMPDEST PUSH0 PUSH2 0x108F PUSH1 0x16 DUP4 PUSH2 0xC16 JUMP JUMPDEST SWAP2 POP PUSH2 0x109A DUP3 PUSH2 0x105B JUMP JUMPDEST PUSH1 0x20 DUP3 ADD SWAP1 POP SWAP2 SWAP1 POP JUMP JUMPDEST PUSH0 PUSH1 0x20 DUP3 ADD SWAP1 POP DUP2 DUP2 SUB PUSH0 DUP4 ADD MSTORE PUSH2 0x10BC DUP2 PUSH2 0x1083 JUMP JUMPDEST SWAP1 POP SWAP2 SWAP1 POP JUMP JUMPDEST PUSH32 0x50726F6A656374206973206E6F74206661696C65640000000000000000000000 PUSH0 DUP3 ADD MSTORE POP JUMP JUMPDEST PUSH0 PUSH2 0x10F7 PUSH1 0x15 DUP4 PUSH2 0xC16 JUMP JUMPDEST SWAP2 POP PUSH2 0x1102 DUP3 PUSH2 0x10C3 JUMP JUMPDEST PUSH1 0x20 DUP3 ADD SWAP1 POP SWAP2 SWAP1 POP JUMP JUMPDEST PUSH0 PUSH1 0x20 DUP3 ADD SWAP1 POP DUP2 DUP2 SUB PUSH0 DUP4 ADD MSTORE PUSH2 0x1124 DUP2 PUSH2 0x10EB JUMP JUMPDEST SWAP1 POP SWAP2 SWAP1 POP JUMP JUMPDEST PUSH32 0x4E487B7100000000000000000000000000000000000000000000000000000000 PUSH0 MSTORE PUSH1 0x11 PUSH1 0x4 MSTORE PUSH1 0x24 PUSH0 REVERT JUMPDEST PUSH0 PUSH2 0x1162 DUP3 PUSH2 0xBDB JUMP JUMPDEST SWAP2 POP PUSH2 0x116D DUP4 PUSH2 0xBDB JUMP JUMPDEST SWAP3 POP DUP3 DUP3 SUB SWAP1 POP DUP2 DUP2 GT ISZERO PUSH2 0x1185 JUMPI PUSH2 0x1184 PUSH2 0x112B JUMP JUMPDEST JUMPDEST SWAP3 SWAP2 POP POP JUMP JUMPDEST PUSH32 0x4E487B7100000000000000000000000000000000000000000000000000000000 PUSH0 MSTORE PUSH1 0x32 PUSH1 0x4 MSTORE PUSH1 0x24 PUSH0 REVERT JUMPDEST PUSH0 PUSH2 0x11C2 DUP3 PUSH2 0xBDB JUMP JUMPDEST SWAP2 POP PUSH2 0x11CD DUP4 PUSH2 0xBDB JUMP JUMPDEST SWAP3 POP DUP3 DUP3 ADD SWAP1 POP DUP1 DUP3 GT ISZERO PUSH2 0x11E5 JUMPI PUSH2 0x11E4 PUSH2 0x112B JUMP JUMPDEST JUMPDEST SWAP3 SWAP2 POP POP JUMP JUMPDEST PUSH0 PUSH2 0x11F5 DUP3 PUSH2 0xBDB JUMP JUMPDEST SWAP2 POP PUSH0 DUP3 SUB PUSH2 0x1207 JUMPI PUSH2 0x1206 PUSH2 0x112B JUMP JUMPDEST JUMPDEST PUSH1 0x1 DUP3 SUB SWAP1 POP SWAP2 SWAP1 POP JUMP JUMPDEST PUSH32 0x6E6F2066756E647320746F20726566756E640000000000000000000000000000 PUSH0 DUP3 ADD MSTORE POP JUMP JUMPDEST PUSH0 PUSH2 0x1246 PUSH1 0x12 DUP4 PUSH2 0xC16 JUMP JUMPDEST SWAP2 POP PUSH2 0x1251 DUP3 PUSH2 0x1212 JUMP JUMPDEST PUSH1 0x20 DUP3 ADD SWAP1 POP SWAP2 SWAP1 POP JUMP JUMPDEST PUSH0 PUSH1 0x20 DUP3 ADD SWAP1 POP DUP2 DUP2 SUB PUSH0 DUP4 ADD MSTORE PUSH2 0x1273 DUP2 PUSH2 0x123A JUMP JUMPDEST SWAP1 POP SWAP2 SWAP1 POP JUMP JUMPDEST PUSH32 0x4E487B7100000000000000000000000000000000000000000000000000000000 PUSH0 MSTORE PUSH1 0x22 PUSH1 0x4 MSTORE PUSH1 0x24 PUSH0 REVERT JUMPDEST PUSH0 PUSH1 0x2 DUP3 DIV SWAP1 POP PUSH1 0x1 DUP3 AND DUP1 PUSH2 0x12BE JUMPI PUSH1 0x7F DUP3 AND SWAP2 POP JUMPDEST PUSH1 0x20 DUP3 LT DUP2 SUB PUSH2 0x12D1 JUMPI PUSH2 0x12D0 PUSH2 0x127A JUMP JUMPDEST JUMPDEST POP SWAP2 SWAP1 POP JUMP JUMPDEST PUSH0 DUP2 SWAP1 POP DUP2 PUSH0 MSTORE PUSH1 0x20 PUSH0 KECCAK256 SWAP1 POP SWAP2 SWAP1 POP JUMP JUMPDEST PUSH0 PUSH1 0x20 PUSH1 0x1F DUP4 ADD DIV SWAP1 POP SWAP2 SWAP1 POP JUMP JUMPDEST PUSH0 DUP3 DUP3 SHL SWAP1 POP SWAP3 SWAP2 POP POP JUMP JUMPDEST PUSH0 PUSH1 0x8 DUP4 MUL PUSH2 0x1333 PUSH32 0xFFFFFFFFFFFFFFFFFFFFFFFFFFFFFFFFFFFFFFFFFFFFFFFFFFFFFFFFFFFFFFFF DUP3 PUSH2 0x12F8 JUMP JUMPDEST PUSH2 0x133D DUP7 DUP4 PUSH2 0x12F8 JUMP JUMPDEST SWAP6 POP DUP1 NOT DUP5 AND SWAP4 POP DUP1 DUP7 AND DUP5 OR SWAP3 POP POP POP SWAP4 SWAP3 POP POP POP JUMP JUMPDEST PUSH0 DUP2 SWAP1 POP SWAP2 SWAP1 POP JUMP JUMPDEST PUSH0 PUSH2 0x1378 PUSH2 0x1373 PUSH2 0x136E DUP5 PUSH2 0xBDB JUMP JUMPDEST PUSH2 0x1355 JUMP JUMPDEST PUSH2 0xBDB JUMP JUMPDEST SWAP1 POP SWAP2 SWAP1 POP JUMP JUMPDEST PUSH0 DUP2 SWAP1 POP SWAP2 SWAP1 POP JUMP JUMPDEST PUSH2 0x1391 DUP4 PUSH2 0x135E JUMP JUMPDEST PUSH2 0x13A5 PUSH2 0x139D DUP3 PUSH2 0x137F JUMP JUMPDEST DUP5 DUP5 SLOAD PUSH2 0x1304 JUMP JUMPDEST DUP3 SSTORE POP POP POP POP JUMP JUMPDEST PUSH0 SWAP1 JUMP JUMPDEST PUSH2 0x13B9 PUSH2 0x13AD JUMP JUMPDEST PUSH2 0x13C4 DUP2 DUP5 DUP5 PUSH2 0x1388 JUMP JUMPDEST POP POP POP JUMP JUMPDEST JUMPDEST DUP2 DUP2 LT ISZERO PUSH2 0x13E7 JUMPI PUSH2 0x13DC PUSH0 DUP3 PUSH2 0x13B1 JUMP JUMPDEST PUSH1 0x1 DUP2 ADD SWAP1 POP PUSH2 0x13CA JUMP JUMPDEST POP POP JUMP JUMPDEST PUSH1 0x1F DUP3 GT ISZERO PUSH2 0x142C JUMPI PUSH2 0x13FD DUP2 PUSH2 0x12D7 JUMP JUMPDEST PUSH2 0x1406 DUP5 PUSH2 0x12E9 JUMP JUMPDEST DUP2 ADD PUSH1 0x20 DUP6 LT ISZERO PUSH2 0x1415 JUMPI DUP2 SWAP1 POP JUMPDEST PUSH2 0x1429 PUSH2 0x1421 DUP6 PUSH2 0x12E9 JUMP JUMPDEST DUP4 ADD DUP3 PUSH2 0x13C9 JUMP JUMPDEST POP POP JUMPDEST POP POP POP JUMP JUMPDEST PUSH0 DUP3 DUP3 SHR SWAP1 POP SWAP3 SWAP2 POP POP JUMP JUMPDEST PUSH0 PUSH2 0x144C PUSH0 NOT DUP5 PUSH1 0x8 MUL PUSH2 0x1431 JUMP JUMPDEST NOT DUP1 DUP4 AND SWAP2 POP POP SWAP3 SWAP2 POP POP JUMP JUMPDEST PUSH0 PUSH2 0x1464 DUP4 DUP4 PUSH2 0x143D JUMP JUMPDEST SWAP2 POP DUP3 PUSH1 0x2 MUL DUP3 OR SWAP1 POP SWAP3 SWAP2 POP POP JUMP JUMPDEST PUSH2 0x147D DUP3 PUSH2 0xC0C JUMP JUMPDEST PUSH8 0xFFFFFFFFFFFFFFFF DUP2 GT ISZERO PUSH2 0x1496 JUMPI PUSH2 0x1495 PUSH2 0xD6B JUMP JUMPDEST JUMPDEST PUSH2 0x14A0 DUP3 SLOAD PUSH2 0x12A7 JUMP JUMPDEST PUSH2 0x14AB DUP3 DUP3 DUP6 PUSH2 0x13EB JUMP JUMPDEST PUSH0 PUSH1 0x20 SWAP1 POP PUSH1 0x1F DUP4 GT PUSH1 0x1 DUP2 EQ PUSH2 0x14DC JUMPI PUSH0 DUP5 ISZERO PUSH2 0x14CA JUMPI DUP3 DUP8 ADD MLOAD SWAP1 POP JUMPDEST PUSH2 0x14D4 DUP6 DUP3 PUSH2 0x1459 JUMP JUMPDEST DUP7 SSTORE POP PUSH2 0x153B JUMP JUMPDEST PUSH1 0x1F NOT DUP5 AND PUSH2 0x14EA DUP7 PUSH2 0x12D7 JUMP JUMPDEST PUSH0 JUMPDEST DUP3 DUP2 LT ISZERO PUSH2 0x1511 JUMPI DUP5 DUP10 ADD MLOAD DUP3 SSTORE PUSH1 0x1 DUP3 ADD SWAP2 POP PUSH1 0x20 DUP6 ADD SWAP5 POP PUSH1 0x20 DUP2 ADD SWAP1 POP PUSH2 0x14EC JUMP JUMPDEST DUP7 DUP4 LT ISZERO PUSH2 0x152E JUMPI DUP5 DUP10 ADD MLOAD PUSH2 0x152A PUSH1 0x1F DUP10 AND DUP3 PUSH2 0x143D JUMP JUMPDEST DUP4 SSTORE POP JUMPDEST PUSH1 0x1 PUSH1 0x2 DUP9 MUL ADD DUP9 SSTORE POP POP POP JUMPDEST POP POP POP POP POP POP JUMP JUMPDEST PUSH32 0x50726F6A656374206973206E6F74206F6E676F696E672E000000000000000000 PUSH0 DUP3 ADD MSTORE POP JUMP JUMPDEST PUSH0 PUSH2 0x1577 PUSH1 0x17 DUP4 PUSH2 0xC16 JUMP JUMPDEST SWAP2 POP PUSH2 0x1582 DUP3 PUSH2 0x1543 JUMP JUMPDEST PUSH1 0x20 DUP3 ADD SWAP1 POP SWAP2 SWAP1 POP JUMP JUMPDEST PUSH0 PUSH1 0x20 DUP3 ADD SWAP1 POP DUP2 DUP2 SUB PUSH0 DUP4 ADD MSTORE PUSH2 0x15A4 DUP2 PUSH2 0x156B JUMP JUMPDEST SWAP1 POP SWAP2 SWAP1 POP JUMP JUMPDEST PUSH32 0x50726F6A65637420646561646C696E6520686173207061737365642E00000000 PUSH0 DUP3 ADD MSTORE POP JUMP JUMPDEST PUSH0 PUSH2 0x15DF PUSH1 0x1C DUP4 PUSH2 0xC16 JUMP JUMPDEST SWAP2 POP PUSH2 0x15EA DUP3 PUSH2 0x15AB JUMP JUMPDEST PUSH1 0x20 DUP3 ADD SWAP1 POP SWAP2 SWAP1 POP JUMP JUMPDEST PUSH0 PUSH1 0x20 DUP3 ADD SWAP1 POP DUP2 DUP2 SUB PUSH0 DUP4 ADD MSTORE PUSH2 0x160C DUP2 PUSH2 0x15D3 JUMP JUMPDEST SWAP1 POP SWAP2 SWAP1 POP JUMP INVALID LOG2 PUSH5 0x6970667358 0x22 SLT KECCAK256 KECCAK256 0xCA MSTORE SWAP4 0xC7 0xBF 0xEE 0xA6 BLOBHASH 0xBE XOR EXTCODECOPY 0xC0 CREATE 0xF9 PUSH1 0x20 0x2B SWAP10 SMOD PC PUSH30 0x2C24E5380C9F98193EF564736F6C634300081A0033000000000000000000 "
				},
				"gasEstimates": {
					"creation": {
						"codeDepositCost": "1141000",
						"executionCost": "1185",
						"totalCost": "1142185"
					},
					"external": {
						"creator()": "2506",
						"currentAmount()": "2513",
						"deadline()": "2492",
						"description()": "infinite",
						"donate()": "infinite",
						"donations(uint256)": "infinite",
						"goalAmount()": "2470",
						"initialize(address,string,uint256,uint256)": "infinite",
						"refund()": "infinite",
						"state()": "2576",
						"updateProjectState()": "36500",
						"withdrawFunds()": "infinite"
					}
				},
				"methodIdentifiers": {
					"creator()": "02d05d3f",
					"currentAmount()": "f441b1c8",
					"deadline()": "29dcb0cf",
					"description()": "7284e416",
					"donate()": "ed88c68e",
					"donations(uint256)": "f8626af8",
					"goalAmount()": "2636b945",
					"initialize(address,string,uint256,uint256)": "e8668c52",
					"refund()": "590e1ae3",
					"state()": "c19d93fb",
					"updateProjectState()": "3deb33e7",
					"withdrawFunds()": "24600fc3"
				}
			},
			"storageLayout": {
				"storage": [
					{
						"astId": 1479,
						"contract": "contracts/homework2/Project.sol:Project",
						"label": "creator",
						"offset": 0,
						"slot": "0",
						"type": "t_address"
					},
					{
						"astId": 1481,
						"contract": "contracts/homework2/Project.sol:Project",
						"label": "description",
						"offset": 0,
						"slot": "1",
						"type": "t_string_storage"
					},
					{
						"astId": 1483,
						"contract": "contracts/homework2/Project.sol:Project",
						"label": "goalAmount",
						"offset": 0,
						"slot": "2",
						"type": "t_uint256"
					},
					{
						"astId": 1485,
						"contract": "contracts/homework2/Project.sol:Project",
						"label": "deadline",
						"offset": 0,
						"slot": "3",
						"type": "t_uint256"
					},
					{
						"astId": 1487,
						"contract": "contracts/homework2/Project.sol:Project",
						"label": "currentAmount",
						"offset": 0,
						"slot": "4",
						"type": "t_uint256"
					},
					{
						"astId": 1494,
						"contract": "contracts/homework2/Project.sol:Project",
						"label": "state",
						"offset": 0,
						"slot": "5",
						"type": "t_enum(ProjectState)1491"
					},
					{
						"astId": 1503,
						"contract": "contracts/homework2/Project.sol:Project",
						"label": "donations",
						"offset": 0,
						"slot": "6",
						"type": "t_array(t_struct(Donation)1499_storage)dyn_storage"
					}
				],
				"types": {
					"t_address": {
						"encoding": "inplace",
						"label": "address",
						"numberOfBytes": "20"
					},
					"t_array(t_struct(Donation)1499_storage)dyn_storage": {
						"base": "t_struct(Donation)1499_storage",
						"encoding": "dynamic_array",
						"label": "struct Project.Donation[]",
						"numberOfBytes": "32"
					},
					"t_enum(ProjectState)1491": {
						"encoding": "inplace",
						"label": "enum Project.ProjectState",
						"numberOfBytes": "1"
					},
					"t_string_storage": {
						"encoding": "bytes",
						"label": "string",
						"numberOfBytes": "32"
					},
					"t_struct(Donation)1499_storage": {
						"encoding": "inplace",
						"label": "struct Project.Donation",
						"members": [
							{
								"astId": 1496,
								"contract": "contracts/homework2/Project.sol:Project",
								"label": "donor",
								"offset": 0,
								"slot": "0",
								"type": "t_address"
							},
							{
								"astId": 1498,
								"contract": "contracts/homework2/Project.sol:Project",
								"label": "amount",
								"offset": 0,
								"slot": "1",
								"type": "t_uint256"
							}
						],
						"numberOfBytes": "64"
					},
					"t_uint256": {
						"encoding": "inplace",
						"label": "uint256",
						"numberOfBytes": "32"
					}
				}
			},
			"userdoc": {
				"kind": "user",
				"methods": {},
				"version": 1
			}
		}
	}
}